:020000040800F2
:10000000580800208902000897340008292B0008AE
:100010009534000835090008794000080000000008
:10002000000000000000000000000000333800085D
:1000300037090008000000001D35000835380008A9
:10004000A3020008A3020008A3020008A3020008FC
:10005000A3020008A3020008A3020008A3020008EC
:10006000A3020008A3020008A3020008A3020008DC
:10007000A3020008A3020008A3020008A3020008CC
:10008000A302000800000000A3020008A302000869
:10009000A3020008A3020008A3020008A3020008AC
:1000A000A3020008A3020008A3020008A30200089C
:1000B000CD380008A3020008A3020008A30200082C
:1000C000A3020008A3020008A3020008A30200087C
:1000D000A3020008A3020008A3020008A30200086C
:1000E000A3020008A3020008A3020008A30200085C
:1000F000A3020008A3020008A302000800000000F9
:1001000000000000A302000800000000A302000895
:10011000A302000800000000A3020008A3020008D8
:10012000A3020008A3020008A3020008A30200081B
:10013000A30200080000000000000000A302000865
:10014000A3020008A3020008000000000000000055
:10015000000000000000000000000000000000009F
:10016000000000000000000000000000A3020008E2
:10017000A3020008000000000000000000000000D2
:1001800000000000A30200080000000000000000C2
:10019000000000000000000000000000000000005F
:1001A0000000000000000000A3020008A3020008F5
:1001B000A3020008A3020008A30200080000000038
:1001C00000000000A3020008000000000000000082
:1001D000A3020008A302000800F002F800F044F8AF
:1001E0000AA090E8000C82448344AAF10107DA4592
:1001F00001D100F039F8AFF2090EBAE80F0013F0A0
:10020000010F18BFFB1A43F00103184718510000F3
:1002100038510000103A24BF78C878C1FAD8520784
:1002200024BF30C830C144BF04680C607047000070
:100230000023002400250026103A28BF78C1FBD8EF
:10024000520728BF30C148BF0B607047642900F0D7
:100250009F80732900F04B82002070471FB503F088
:1002600063FF1FBD10B510BD00F045FA1146FFF742
:10027000F5FF03F019FF00F063FA03B4FFF7F2FF94
:1002800003BC00F06BFA00000948804709480047AA
:10029000FEE7FEE7FEE7FEE7FEE7FEE7FEE7FEE736
:1002A000FEE7FEE704480549054A064B7047000093
:1002B000BD380008D9010008580200205808002065
:1002C00058040020580400200FB41CB5074B06AAA0
:1002D0007B4469460090059800F0DFF900206946EC
:1002E00000F0EEF91CBC5DF814FB0000ED0300000B
:1002F00070B5044685690068C10601D5302600E066
:100300002026C00707D070BDD4E9012130469047B0
:10031000206A401C20626D1EF6D570BD70B5044683
:1003200085690078C00707D170BDD4E9012120207C
:100330009047206A401C20626D1EF6D570BD70B5D6
:100340000C460546012A05D02878800600D5EA69C2
:10035000002302E0012305E05B1C934202D2E05C33
:100360000028F9D1A869E618C01AA861286A1844BB
:1003700028622846FFF7BCFF04E0D5E9012114F804
:10038000010B9047B442F8D32846FFF7C7FF70BD72
:100390002DE9F0410646002410687529314616A55E
:1003A00010D0AFF30080002802DA404213A507E026
:1003B00031688A0701D512A502E0490704D511A5C5
:1003C000012401E0AFF3008000210A2206F1240796
:1003D00009E0B0FBF2FCB0FBF2F302FB1C00303092
:1003E00078541846491C0028F3D123462A46304643
:1003F000BDE8F04100F0F2B8000000002D00000060
:100400002B000000200000002DE9F05F8946044623
:100410004FF0000ADFF824B1FB44C0F820A02046CA
:10042000E168884700287DD0252806D0D4E901213D
:100430009047206A401C2062F1E700255F46204675
:10044000E16888472028064607DB312E05D2B81917
:1004500010F8200C08B10543F1E7A80701D525F0F5
:100460000405C4F81CA00027C4F818A02A2E09D03F
:10047000304603F012FE38B304EB8708303EC8F86C
:10048000186019E059F8041B204604EB87029161BB
:10049000E1688847012F064618D1E069002820DA74
:1004A00025F020051DE0D8F8180000EB800006EBD1
:1004B00040003038C8F818002046E16888470646F2
:1004C00003F0EBFD0028EED1012F0AD02E2E08D12B
:1004D0002046E16888477F1C0646022F45F020052C
:1004E000C4DBA069002803DA404245F00105A061A1
:1004F000E80701D025F01005A6B1A6F141001928A2
:1005000002D8203645F400654A463146204625602B
:100510004D46FFF79BFE60B1012807D0ED1D25F089
:10052000070000E007E000F1080978E705F1040999
:1005300075E730467AE7206ABDE8F09FF64E000086
:1005400040EA0103024630B59B0710D14FF0013459
:1005500000E008C208C91D1B9D4315EAC41FF8D05E
:1005600013F0FF0102F8011B0DD01B0AF8E711F888
:10057000013B002B02F8013B05D011F8013B002B99
:1005800002F8013BF3D130BD4FF0000200B5134635
:1005900094469646203922BFA0E80C50A0E80C50A3
:1005A000B1F12001BFF4F7AF090728BFA0E80C5054
:1005B00048BF0CC05DF804EB890028BF40F8042B4D
:1005C00008BF704748BF20F8022B11F0804F18BFBA
:1005D00000F8012B70477047704770472DE9F047CE
:1005E0000D4699469246044600F1240801688806A3
:1005F00004D5E06921F01001216000E00120A8424B
:1006000001DD471B00E00027A1697A1902EB090010
:10061000081AA0612078C00602D42046FFF768FEC1
:10062000002608E0D4E901211AF806009047206A64
:10063000401C761C20624E45F4DB2078C0060AD5AB
:100640002046FFF755FE06E0D4E90121302090470F
:10065000206A401C2062381EA7F10107F4DC07E085
:10066000D4E9012118F805009047206A401C206257
:10067000281EA5F10105F3DC2046FFF74FFE207888
:10068000000602D50220BDE8F0870120FBE700004C
:1006900001694A1C02610878704700B58FB0CDE946
:1006A00001310021059105497944CDE90310114636
:1006B0006846FFF7A9FE0FB000BD0000E5FFFFFF91
:1006C0000A6802F8010B0A60704710B5436913B15C
:1006D000AFF3008001E0FFF732FE012010BD127879
:1006E00000F124010A7000224A700122EDE711682E
:1006F0004FF0FF32E9E7754600F02CF8AE460500F2
:100700006946534620F00700854618B020B5FFF72C
:10071000C9FDBDE820404FF000064FF000074FF044
:1007200000084FF0000B21F00701AC46ACE8C0090F
:10073000ACE8C009ACE8C009ACE8C0098D46704718
:1007400010B50446AFF300802046BDE81040FFF727
:1007500094BD000000487047F801002001491820AE
:10076000ABBEFEE7260002007047000070B50446ED
:10077000006881688268C1F3400112F0010F28D03F
:1007800039BB816801F00D01012914D18168124A39
:100790001140891C816021680320086000F04CFF33
:1007A000054612E000F048FF401B02280DD92068E2
:1007B0008068C00709D0E06D40F01000E065206E51
:1007C00040F001002066012070BD20688068C007ED
:1007D000E8D1002070BD0000C0FFFF7FF8B50446DF
:1007E000002000902068816811F0010F41D18168DC
:1007F000214A11422ED18168D5432940491C81608C
:100800001E48806800F0E07000020DD51C481D49AC
:100810000068B0FBF1F0401C00EB4000800000E0FD
:10082000401E00900028FBD100F006FF06461BE0AA
:10083000816811F0010F03D181682940491C816052
:1008400000F0FAFE801B02280ED920680068C04321
:10085000C00709D0E06D40F01000E065206E40F068
:10086000010020660120F8BD20680168C943C9075E
:10087000DED10020F8BD00003F00008000030050E2
:1008800050000020400D030070B500F031F816480C
:10089000017A002926D142898189C2EB0233A1F570
:1008A0007A7193FBF1F1114B89B240F6FF751C8808
:1008B000B4FBF1F1514301F57A714182C278847839
:1008C000A2F10A0191FBF4F189B2491CB5FBF1F1E7
:1008D0005B88B3FBF1F161430A31C9B2C171914246
:1008E00000D9C27170BD0000000000205C00002033
:1008F00010B50D4800F0E6FC0C4800F0E3FC642164
:10090000094800F061FC0A4C18B9074800F0ECFAFD
:1009100020806421054800F057FC002803D10348DB
:1009200000F0E2FA608010BD7C000020E8000020AA
:100930005C000020FEE77047002240F6B83306E076
:100940000021491C89B29942FBD3521C92B28242C7
:10095000F6D3704772B6FEE7F8B500260446009657
:1009600090F858000D4601280BD0012084F858005B
:100970002046FFF7FBFE0100E06D04D040F01000C0
:100980002AE00220F8BD20F4885040F00200E06523
:1009900020688268134B1A4005F080431A4342F0E6
:1009A00000428260104A20680EE0009B5B1C0093AE
:1009B000934209D3E06D20F0020040F01000E065A2
:1009C00084F858600120F8BD8368DB0FEDD1E06D3D
:1009D00020F0020040F00100E06584F8586008460D
:1009E000F8BD0000C0FFFF3F02DE04002DE9F04724
:1009F000044690F858009CB00E464FF000090128BC
:100A000015D0012084F85800002517951895206806
:100A10004FF0A04840450ED1284F0097384602F0CD
:100A20008DFB8246206802F089FB60B10EE0022057
:100A30001CB0BDE8F087E06D40F02000E06584F870
:100A400058500120F4E7BAF1000F09D0E06D40F0F2
:100A50002000E0654FF0010984F858504846E7E768
:100A60001748326840F61F71002A826822F46042FB
:100A700016D094F8383042EA433273681A438260E1
:100A8000D8F80820BB6802F0010203F001031A4302
:100A9000E2D1B36832681A4383688B431A430BE090
:100AA0008260D8F80820BB6802F0010203F001035D
:100AB0001A43D1D182688A438260CDE70001005099
:100AC000000300502DE9F84F00270446009790F8E6
:100AD0005800DFF8E0930D46B846012811D00126F2
:100AE00084F85860206802F025FB60B1E06D40F0AA
:100AF0002000E0655FF0010784F858803846BDE8C3
:100B0000F88F0220FBE7D5E900210C23206803EAD7
:100B100091131844036B01F01F014FF01F0C0CFAE6
:100B200001FCC2F3846223EA0C038A40134303638B
:100B3000206802F0FFFA8246206802F0F7FA5AEACB
:100B400000003CD1AA6829682068B2F1004F37D074
:100B500002F000FB2068416921F0004141612068FA
:100B60006969C268C2F3C102520091402A69042A2D
:100B700031D000EB82002B68026EDFF83CC303F03B
:100B8000F84302EA0C020B431A4342F000410166AB
:100B900020682A69A96900EB8200026E22F0807247
:100BA0000A430266297F22682869012910D00021A2
:100BB00002EB8000026E22F000720A4302667DE0C2
:100BC000002202F0C7FA2068416941F00041C5E700
:100BD0004FF00071ECE7002102F0A2FA4003206818
:100BE0004FF0000172D002F09BFA90FAA0F0B0FA38
:100BF00080F1286842036ED090FAA0F0B0FA80F03D
:100C0000814204D100221146206802F0B2FA01218B
:100C1000206802F085FA400320684FF001015DD0A2
:100C200002F07EFA90FAA0F0B0FA80F12868420350
:100C300059D090FAA0F0B0FA80F0814204D100229D
:100C40000121206802F095FA0221206802F068FA7A
:100C5000400320684FF0020148D002F061FA90FA98
:100C6000A0F0B0FA80F12868420344D090FAA0F0D6
:100C7000B0FA80F0814204D100220221206802F003
:100C800078FA0321206802F04BFA400320684FF005
:100C9000030133D002F044FA90FAA0F0B0FA80F1E8
:100CA000286842032FD090FAA0F0B0FA80F0814279
:100CB00004D100220321206802F05BFA20688168D9
:100CC00011F0010F22D0ACE000E004E002F028FABD
:100CD000C0F384618DE7C0F3846091E702F020FAED
:100CE000C0F38461A2E7C0F38460A6E702F018FABB
:100CF000C0F38461B7E7C0F38460BBE702F010FA89
:100D0000C0F38461CCE7C0F38460D0E72A7B296814
:100D100050F8B03FC1F3120C23EA0C0302F0180C98
:100D2000664A22FA0CF20A4013430360E968494517
:100D300077D1286841031CD090FAA0F1B1FA81F173
:100D4000491C01F01F0109294FEA403132D800291E
:100D500012D000BF90FAA0F1B1FA81F101F10101C6
:100D600001F01F0106FA01F609D100BFC0F384614A
:100D700009E0C0F38461E3E7C0F38461EEE790FA31
:100D8000A0F1B1FA81F101F1010101F01F0146EA80
:100D9000816102D1C0F3846003E090FAA0F0B0FA60
:100DA00080F000F1010000F01F0000EB400041EA7C
:100DB000005132E000290ED090FAA0F1B1FA81F191
:100DC00001F1010101F01F0106FA01F606D100BF91
:100DD000C0F3846106E0C0F38461F1E790FAA0F10A
:100DE000B1FA81F101F1010101F01F0146EA8161CF
:100DF00002D1C0F3846003E090FAA0F0B0FA80F072
:100E000000F1010000F01F002D4A00EB400002EB52
:100E1000005041EA000141F00071AA68206802F028
:100E200099F928482A6802423FF466AE264881684C
:100E3000264B01F0E0719A4202D0254B9A421CD118
:100E40000B021AD42268B2F1A04F7FF455AE82682B
:100E500041F4000122F0E0720A4382601D481E49FD
:100E60000068B0FBF1F0401C00EB4000800000E0A7
:100E7000401E00900028FBD13EE6184D184BAA42B8
:100E800007D1CD0105D422689A42F5D041F0807196
:100E900009E0144DAA42EFD14A02EDD422689A42E9
:100EA000EAD041F48001826822F0E0720A43826055
:100EB00022E6000000007F4000F0FF03FFFF070074
:100EC000000020FE0000088000030050000021C345
:100ED0001000C09050000020400D0300000052C7D9
:100EE00000010050000084CB0068006C70470000D7
:100EF000F8B54FF0000504002E46009502D0E06DD5
:100F000010B107E00120F8BD204600F0EBF826669E
:100F100084F8586020688168C1F3407119B1816814
:100F2000684A1140816020688168C1F3007189B905
:100F30008168654A114041F080518160634864498D
:100F40000068B0FBF1F04000801C00E0401E009003
:100F50000028FBD120688168C1F3007141B9E16DBF
:100F600041F01001E165216E41F00101216601258A
:100F700002F0E0F8E16DC90600D430B1E06D40F058
:100F80001000E06501252846F8BDE06D20F4807072
:100F900040F00200E0652068806810F0010F11D178
:100FA0004FF0A04080684B4900F00100896801F0D3
:100FB0000101084306D148486168826822F47C1226
:100FC0000A438260E168E06B627F0843A16841EAFE
:100FD0004231084394F8241040EA0140012904D129
:100FE000218D3E4A02EB41410843E16A29B101F4F7
:100FF0007871226B014342EA01002268D168384BC4
:1010000019400143D16020680169626B21F04061A1
:1010100011430161206802F089F870BB207F94F8C9
:101020003810800340EA41022168C86844F2020394
:1010300098431043C86020690028206801690AD0DD
:1010400041F480310161206850F8C01F22696FF3BC
:101050000D01114307E021F480310161206850F84F
:10106000C01F6FF30D01016094F8400001280CD0FF
:101070002068016921F0010101616069012820688F
:10108000016B21F00F0111D013E0D4E911010843E5
:10109000D4E913121143084321680A6940F2FC7332
:1010A0009A43104340F001000861E6E7226A521EAD
:1010B00011430163E06D20F0020040F00100E065A3
:1010C00061E70000C0FFFF5FC0FFFF7F500000200E
:1010D000400D030000010050000300500000FEFF1F
:1010E0000740F0FF2DE9F04397B00446142111A802
:1010F000FFF74AFA44216846FFF746FA4FF00050DE
:1011000021682D4D0327DFF8B49086132C4C4FF047
:101110000008B1F1A04F10D02A4A914248D1009660
:101120000F90684600F086FB08B1FFF713FC2868B3
:10113000401C2860012824D02BE000960F906846C0
:1011400000F078FB08B1FFF705FC2868401C286018
:10115000012807D1E06C40F40050E064E06C00F43A
:1011600000501690E06C40F00200E064E06C11A9C1
:1011700000F0020016904FF4805081E8810148464B
:1011800014E0E06C40F40050E064E06C00F40050C7
:101190001690E06C40F00200E064E06C11AA00F0F0
:1011A0000200169082E8C00111A9484600F016F925
:1011B00017B0BDE8F08300004000002000040048A4
:1011C00000100240000100502DE9F04104463B4868
:1011D0000F46816801F01F05A16908290FD085B16C
:1011E000052D0ED0092D0CD0806800F4604060B150
:1011F000E06D40F02000E0650120BDE8F0810826A8
:1012000004E02068C068C007F1E7042600F014FA83
:10121000804615E0781C13D000F00EFAA0EB080011
:10122000B84200D867B920680068304208D1E06D44
:1012300040F00400E065002084F858000320DCE75B
:10124000206800683042E5D0E06D40F40070E06551
:10125000206801F077FF80B1607F70B92068006876
:1012600000070AD5E06D20F48070E065E06DC004F1
:1012700003D4E06D40F00100E065114A20684FF0B2
:10128000A041904201D10B4600E00346834210D0BA
:101290007DB1052D0DD0092D0BD0904200D0014617
:1012A000C968082E07D0490401D40C210160002030
:1012B000A3E7C168F5E70821F8E700000003005044
:1012C000000100502DE9F04104463848806800F0E4
:1012D0001F05206801F02EFF18B102210846BDE865
:1012E000F08194F8580001280CD0012084F85800AF
:1012F0002046FFF773FA01004FF0000304D084F892
:101300005830EBE70220EAE7E06D40F601629043D7
:1013100040F48070E065264A20684FF0A046904275
:1013200001D1374600E00746874200D01DB9E76D7E
:1013300027F48017E765E76DFF0404D5276E27F0D3
:101340000607276600E023661C27076084F85830EC
:101350002068904201D1334600E00346834215D015
:10136000A5B1052D12D0092D10D0E36D43F48013E3
:10137000E365904200D13046C0688001AED5E06D93
:1013800020F4005040F48050E065A7E7C268920165
:1013900005D5E26D22F4005242F48052E265826883
:1013A000044B1A40121D826098E7000000030050B1
:1013B00000010050C0FFFF7F70B5044600F03CF90B
:1013C0000546601C02D004484068044400F034F92B
:1013D000401BA042FAD370BD440000202DE9F04F1D
:1013E000DFF82092002301260324A9F1040B85B025
:1013F0000F2709F1040AABF1040EFAE006FA03F52F
:101400002A407CD091F804C00CF0030CBCF1010F11
:1014100002D0BCF1020F26D1D0F808C0CDF800C030
:101420004FEA430C04FA0CF8CDF810C0DDF800C008
:101430002CEA080CCDF800C0D1F80C80DDF810C003
:1014400008FA0CF8DDF800C048EA0C08C0F808807B
:10145000D0F804C02CEA050C0D79C5F300159D40A9
:1014600045EA0C0545600D79ED43AD070ED0C56822
:101470004FEA430804FA08FC25EA0C05D1F808C035
:101480000CFA08FC4CEA050CC0F80CC00D7905F00C
:101490000305022D16D1DD0800EB850CCDF808C040
:1014A000DCF820805D074FEAD56C07FA0CF528EAD6
:1014B00005080D6905FA0CF5DDF808C045EA0805D0
:1014C000CCF8205005684FEA430CCDF808C004FA68
:1014D0000CFC25EA0C0591F804C00CF00308DDF8BB
:1014E00008C008FA0CF848EA0508C0F800804D6802
:1014F00015F4403F7CD0444DD5F860C000E077E063
:101500004CF0010CC5F860C02D6E23F0030C05F003
:10151000010500953D4D65440295AD684FEA837C19
:101520004FEA1C7807FA08FC25EA0C05B0F1904F49
:1015300006D0DFF8DCC0604505D14FF0010C20E09B
:101540004FF0000C1DE0DFF8CCC0604502D14FF039
:10155000020C16E0DFF8C0C0604502D14FF0030C6A
:101560000FE0DFF8B8C0604502D14FF0040C08E08E
:10157000DFF8ACC0604502D14FF0050C01E04FF040
:10158000060C0CFA08FC4CEA050C029DC5F808C0D4
:10159000D9F80050CC46D1F8048095435FEAC828BA
:1015A00000D51543CCF80050DAF80050D446D1F8F5
:1015B000048095435FEA882800D51543CCF8005095
:1015C000DBF80050DC46D1F8048095435FEA8838A8
:1015D00000D51543CCF80050DEF80050F446D1F8A1
:1015E000048095435FEAC83800D51543CCF8005015
:1015F0005B1C0A6832FA03F57FF400AF05B0BDE862
:10160000F08F00000804014000100240000001407B
:101610000004004800080048000C00480010004882
:10162000001400480069084000D0012070470AB14A
:10163000816170478162704701488068704700008F
:10164000440000200248816842681144816070476C
:101650004400002010B50024032000F073F800209F
:1016600000F008F808B1012401E000F025F8204658
:1016700010BD000070B50E4E05460024706898B18C
:101680004FF47A71B1FBF0F00A490968B1FBF0F050
:1016900000F03CFD40B9102D06D200222946501E14
:1016A00000F030F8356000E00124204670BD0000F5
:1016B00044000020500000200A4882B0016E41F032
:1016C00001010166016E01F001010091816D41F09F
:1016D00080518165806D00F08050009002B000F074
:1016E000A1B8000000100240002809DB00F01F0232
:1016F000012191404009800000F1E020C0F8001174
:1017000070470000F0B40E4B1B680C46C3F3022375
:10171000C3F10705042D00D90425191D072901D29D
:10172000002300E0DB1E012606FA05F1491E2140D8
:1017300099409E40761E16403143F0BC02F09DBC9D
:101740000CED00E0064900F0070208684FF6FF03C1
:10175000184040EA0220034A104308607047000026
:101760000CED00E00000FA052B492C4B0A683221F1
:101770004A432B4940B1B0F5007F086829D020F4D6
:10178000C06040F480602CE00868C0F3412002286B
:1017900004D051F8800F20F4807022E0D1F880004E
:1017A00020F48070C1F88000086820F4C06040F424
:1017B00000700860B2FBF3F0401C00E0401E4A6974
:1017C000520501D50028F9D1486940050AD5032002
:1017D0007047C0F34120022806D051F8800F40F432
:1017E0008070086000207047D1F8800040F480705D
:1017F000C1F88000086820F4C06040F40070086000
:10180000B2FBF3F0401C00E0401E4A695205DBD5F4
:101810000028F9D1D8E700005000002040420F0016
:10182000007000400248816841F480418160704747
:10183000007000402DE9F8430446006800269D4DE5
:1018400000035ED5A86D0027C00008D4A86D40F045
:101850008050A865A86D012700F080500090DFF847
:101860005892D9F8001041F48071C9F80010FFF7C0
:10187000E3FE804606E000BFFFF7DEFEA0EB0800B7
:1018800002282BD8D9F80000C005F5D5D5F890006E
:1018900010F4407014D0216C814211D0D5F8900022
:1018A000D5F8901020F4407041F48031C5F89010C4
:1018B000D5F8901021F48031C5F89010C5F890004B
:1018C000C00711D0FFF7B8FE804641F2883907E023
:1018D000FFF7B2FEA0EB0801494501D903260BE052
:1018E000D5F890008007F3D5D5F89000216C20F44E
:1018F00040700843C5F890001FB1A86D20F08050DB
:10190000A8652078C00707D0D5F88800616820F066
:1019100003000843C5F888002078800707D5D5F86C
:101920008800A16820F00C000843C5F888002078E2
:10193000400707D5D5F88800E16820F0300008435B
:10194000C5F888002078000707D5D5F888002169F8
:1019500020F0C0000843C5F888002078800607D52D
:10196000D5F88800616920F440600843C5F8880014
:101970002078400607D5D5F88800A16920F44050AA
:101980000843C5F888002078000607D5D5F88800F8
:10199000E16920F440400843C5F888002088C0056C
:1019A00007D5D5F88800216A20F440300843C5F8EF
:1019B00088002088800507D5D5F88800616A20F462
:1019C00040200843C5F88800208840050FD5D5F889
:1019D0008800A16A20F440100843C5F88800A06A76
:1019E000B0F5801F03D1E86840F48010E8602088DB
:1019F00000050FD5D5F88800E16A20F440000843BF
:101A0000C5F88800E06AB0F5800F03D1E86840F4BB
:101A10008010E8602088C0040FD5D5F88800216BBD
:101A200020F040700843C5F88800206BB0F1807F3B
:101A300003D1E86840F48010E86020884FF000612E
:101A400080040ED5D5F88800626B20F0406010430A
:101A5000C5F88800606B884203D1E86840F48010C4
:101A6000E860208840040ED5D5F88800A26B20F0ED
:101A700040601043C5F88800A06B884203D1E86835
:101A800040F48010E860208800040FD5D5F8880065
:101A9000E16B20F040500843C5F88800E06BB0F1DE
:101AA000805F03D1E86840F48030E8603046BDE8EC
:101AB000F883000000100240007000402DE9F0475C
:101AC0000E4605004FF0000725D0DFF8AC81D8F8AE
:101AD000000000F00F00B0420CD2D8F8001021F046
:101AE0000F013143C8F80010D8F8000000F00F00D3
:101AF000B04210D12968614CC80741F2883A5AD0E7
:101B00006868DFF87C91032808D0022820682DD06F
:101B1000400500282CDB0120BDE8F087206880010B
:101B2000F9D5E06800F00302E068C0F30310401C40
:101B3000032A19D0534A00BFB2FBF0F0E268C2F3A7
:101B400006225043E268C2F34162521C5200B0FBCD
:101B5000F2F0484517D9A06810F0F00F0CD08807B4
:101B600011D5A86840B10EE0474AE5E78003D0E709
:101B700000F092F8484506D9A06820F0F00040F047
:101B80008000A0608027A068696820F003000843F7
:101B9000A060FFF751FD814606E000BFFFF74CFD56
:101BA000A0EB090151453AD8A068696800F00C0023
:101BB000B0EB810FF2D12868810714D5400703D517
:101BC000A06840F4E060A0602878000705D5A06810
:101BD00020F4605040F4E060A060A068A96820F0A4
:101BE000F000084304E0802F03D1A06820F0F0004B
:101BF000A060D8F80010404601F00F01B14216D99C
:101C0000016821F00F0131430160FFF715FD074620
:101C100007E000BFFFF710FDC11B514501D90320AC
:101C20007AE7D8F8000000F00F00B042F2D128782F
:101C3000400705D5A068E96820F4E0600843A0608B
:101C40002878000706D5A068296920F4605040EA8A
:101C5000C100A06000F020F8A1680C4AC1F3031194
:101C6000515C01F01F01C84009490860094800683B
:101C7000BDE8F047FFF7FEBC002002400010024024
:101C800000B4C4040024F40000366E0132410008A0
:101C90005000002044000020184910B58868C0F3A7
:101CA00081021748012A0BD08A68164BC2F38102C1
:101CB000022A06D08A68C2F38102032A03D00020D8
:101CC00010BD184610BDCA6802F00304CA68C2F30A
:101CD0000312521C032C02D0B0FBF2F001E0B3FB64
:101CE000F2F0CA68C968C2F306225043C1F34161E9
:101CF000491C4900B0FBF1F010BD0000001002408B
:101D00000024F40000366E012DE9F84304007AD077
:101D10002078F84DC00747D0A868E96800F00C00AB
:101D200001F003010C2802D0082817D001E0032994
:101D300014D06068B0F5803F17D0B0F5A02F2868A8
:101D400017D020F480302860286820F48020286094
:101D50006068E0B1FFF770FC064614E02868800375
:101D600022D560680028D2D01EE0286840F4803078
:101D7000EDE740F480202860F7E700BFFFF75CFC48
:101D8000801B642870D828688003F7D50CE0FFF723
:101D900053FC064605E000BFFFF74EFC801B64289D
:101DA000F0D828688003F7D4207880074CD5A8683D
:101DB000E96800F00C0001F003010C2802D00428AF
:101DC0000DD001E002290AD0E068002828682BD055
:101DD00040F480702860FFF72FFC064619E0286861
:101DE000400502D5E068002891D06868217C20F089
:101DF000FE4040EA01606860BF480068FFF73AFCB7
:101E0000002800D120E072E1FFF716FC801B0228B9
:101E1000B8D828684005F7D56868217C20F0FE40D6
:101E200040EA016068600FE020F480702860FFF7EE
:101E300003FC064605E000BFFFF7FEFB801B0228FF
:101E4000A0D828684005F7D42078000729D5606914
:101E50000028D5F8940013D040F00100C5F8940094
:101E6000FFF7EAFB064606E090E000BFFFF7E4FB61
:101E7000801B022886D8D5F894008007F6D510E09C
:101E800020F00100C5F89400FFF7D6FB064604E0F9
:101E9000FFF7D2FB801B022878D8D5F89400800782
:101EA000F6D42078400761D5A86D0026C00008D47C
:101EB000A86D40F08050A865A86D012600F0805004
:101EC00000908E480168C90511D40168804641F42C
:101ED00080710160FFF7B0FB074604E0FFF7ACFB41
:101EE000C01B022852D8D8F80000C005F6D5A0685B
:101EF000012815D00528D5F8900016D020F0010053
:101F0000C5F89000D5F8900020F00400C5F89000C6
:101F1000A06841F28838B8B1FFF78EFB07460EE0A3
:101F2000D5F8900040F00100F0E740F00400C5F85B
:101F30009000F5E7FFF780FBC11B414526D8D5F897
:101F400090008007F6D50CE0FFF776FB074604E02B
:101F5000FFF772FBC11B414518D8D5F890008007E8
:101F6000F6D41EB1A86D20F08050A86520788006B8
:101F700029D5A0690028D5F8980013D040F00100B9
:101F8000C5F89800FFF758FB064606E075E000BF6D
:101F9000FFF752FB801B02286FD8D5F89800800706
:101FA000F6D510E020F00100C5F89800FFF744FBDB
:101FB000064604E0FFF740FB801B02285DD8D5F8F9
:101FC00098008007F6D4E069F0B3A968C1F38101F5
:101FD00003295DD00228286820F08070286003D093
:101FE000FFF72AFB04464BE0FFF726FB064604E01A
:101FF000FFF722FB801B02283FD828688001F7D416
:10200000F4E908016FF00F0202EB01110843218A85
:102010005204490802EB4151A26841EA02210843F7
:10202000217D4FF07E42490802EB41610843217B4C
:1020300040EAC160E968324A11400843E860286814
:1020400040F08070286000E05EE0E86840F080705A
:10205000E860FFF7F1FA044605E000BFFFF7ECFA8D
:10206000001B022809D828688001F7D54CE000BF82
:10207000FFF7E2FA001B022802D90320BDE8F8832B
:1020800028688001F4D4E8681E490840E8603BE015
:102090000128F3D0E868226A00F00301914226D1BA
:1020A000616A00F0F0020901103991421FD1A26A61
:1020B00000F4FE41B1EB022F19D194F82C2000F06E
:1020C0007841B1EBC26F12D1218E00F4C0024908F1
:1020D0004905A1F50011914209D194F8341000F09E
:1020E000C06049084906A1F1007181420CD001206D
:1020F000C4E70000001002404400002000700040CF
:102100000C809F01FCFFEEFE0020B7E710B5401EDB
:10211000B0F1807F01D3012010BD4FF0E024606159
:102120000F21601701F0A9FF0020A06107202061A6
:10213000002010BD70477047704770477047704768
:10214000F0B590F83C20012A3AD0012580F83C50A7
:10215000022280F83D2003685A689C68194E1A4F85
:10216000B34201D0BB4204D122F4700C4A6842EA67
:102170000C02DFF858C002EA0C02D1F800C04CEAA9
:10218000020CC3F804C00268B2420DD0B2F1804F15
:102190000AD00F4B9A4207D00E4B9A4204D0BA4253
:1021A00002D00D4B9A4204D1896824F08003194370
:1021B000916080F83D50002180F83C100846F0BD49
:1021C0000220F0BD002C0140003401408FFFFFFDD4
:1021D000000400400008004000400140704710B576
:1021E000040003D094F83D0010B107E0012010BDB9
:1021F000002084F83C00204600F022F8022084F8F9
:102200003D00211D206801F067FB012084F8480093
:1022100084F83E0084F83F0084F8400084F84100D0
:1022200084F8420084F8430084F8440084F84500B0
:1022300084F8460084F8470084F83D00002010BD73
:1022400010B586B0044614216846FEF79DF9216852
:102250001C48B1F1804F0CD01B4A914207D1816DCF
:1022600041F002018165806D00F00200059006B02A
:1022700010BD816D41F001018165816D01F00101A9
:102280000591C16C41F00101C164C06C694600F068
:10229000010005904FF400400090022001900020C2
:1022A00002900390012004904FF09040FFF796F8C1
:1022B000002201211C20FFF725FA1C20FFF714FA49
:1022C000D5E70000001002400004004070B504464D
:1022D00090F83C000025012814D0012684F83C60C9
:1022E000022084F83D0022689068364B184020F4A4
:1022F0007F409060086870282ED010DC10F00F0F1F
:1023000003D021E04FF0020070BD4FEA2012072AEF
:102310001AD2DFE802F0525252524A3840002A4B99
:10232000C21A984249D009DCB0F5805F0DD0B0F5F3
:10233000005F1CD0B0F1101F06D13EE0102A3CD047
:10234000202A3AD0502A38D0012584F83D60002058
:1023500084F83C00284670BDCB68D1E90121206893
:1023600001F025FB2068816841F0770109E0CB6826
:10237000D1E90121206801F01AFB2068816841F44D
:1023800080418160E1E7CA684968206801F0DEFCAD
:102390005021206806E0CA684968206801F01EFDE7
:1023A0006021206801F00EFBCFE7CA684968206809
:1023B00001F0CCFC40212068F4E722680146104679
:1023C000F0E7000088FFCEFF200010000649884299
:1023D00009D10068406B054AB2FBF0F0044A508016
:1023E00009680020486270475401002040420F00F5
:1023F000600000202DE9F041054690F83C000026E1
:102400000C46012810D0012085F83C0072B1042A46
:102410001CD0082A2CD00C2A50D00126002085F888
:102420003C003046BDE8F0810220FBE7D4E9001211
:10243000E368286801F09CFC2868816921F00C01A0
:10244000816128688169A26811430FE0D4E9001214
:10245000E368286801F0D4FC2868816921F44061B0
:10246000816128688169A26841EA02218161D5E71A
:102470002868D4E9002C277B036A016A21F4807163
:102480000162C16923F4206321F0030141EA0C01D8
:1024900021F0F00C39074FF420674CEA116107EA8C
:1024A00002221A43C16102622868C16921F00C014D
:1024B000C1612868C169A26811432BE02868D4E98A
:1024C0000021E768036AD0F820C02CF4805CC0F8D3
:1024D00020C0D0F81CC023F420432CF4407C4CEAEC
:1024E000012121F4704C4FF6FF7101EA07314FF4DE
:1024F000204741EA0C0107EA02321A43C161026235
:102500002868C16921F44061C1612868C169A26875
:1025100041EA0221C16181E710B5040003D094F8BB
:102520003D0010B107E0012010BD002084F83C0000
:10253000204600F022F8022084F83D00211D20688A
:1025400001F0CAF9012084F8480084F83E0084F8BC
:102550003F0084F8400084F8410084F8420084F889
:10256000430084F8440084F8450084F8460084F869
:10257000470084F83D00002010BD704730B5044688
:10258000002571B1042911D0082914D00C2917D0C5
:10259000102918D094F8430094F84720012817D147
:1025A00014E094F83E0094F84420F7E794F83F00D4
:1025B00094F84520F2E794F8400094F84620EDE7BF
:1025C00094F84100E8E794F84200E5E7012A01D0D9
:1025D000012030BD022079B1042916D008291DD070
:1025E0000C2949D010294AD084F8430084F84700C8
:1025F0000C2947D001253DE084F83E0084F84400D2
:102600002068C26842F0020210E084F83F0084F8BB
:1026100045002068C26842F0040207E084F84000E8
:1026200084F846002068C26842F00802C2600122B5
:10263000206801F0AFF91649206888420ED0B0F149
:10264000804F0BD01349884208D01349884205D0E7
:102650001249884202D01249884207D18168114A42
:102660001140062906D0B1F5803F03D0016841F042
:1026700001010160284630BD84F84100B6E784F8C6
:102680004200B3E72068C26842F01002CEE70000C3
:10269000002C0140000400400008004000340140CC
:1026A00000400140070001002DE9F04104460068A8
:1026B000C66805694FF00007A90713D5B10711D502
:1026C000F91E01610120207720688069800720467B
:1026D00002D0FFF77BFE04E000F0E0F8204600F0B7
:1026E000A2F92777680716D5700714D521686FF00F
:1026F00004000861022020772068806910F4407F80
:10270000204602D0FFF762FE04E000F0C7F8204642
:1027100000F089F92777280715D5300713D52168E8
:102720006FF008000861042020772068C0698007E6
:10273000204602D0FFF74AFE04E000F0AFF8204642
:1027400000F071F92777E80616D5F00614D5216850
:102750006FF010000861082020772068C06910F42D
:10276000407F204602D0FFF731FE04E000F096F8EB
:10277000204600F058F92777E80708D0F00706D080
:1027800021686FF001000861204600F0CBF92806AF
:1027900001D4A80408D5300606D521686FF402508C
:1027A00008612046FFF7C7FCE80508D5300606D5C6
:1027B00021686FF4807008612046FFF7BBFC680653
:1027C00008D5700606D521686FF0400008612046E4
:1027D00000F0A9F9A80608D5B00606D521686FF063
:1027E000200008612046FFF7A7FCE80208D5F002A8
:1027F00006D521686FF4801008612046FFF79EFC23
:10280000A80208D5B00206D521686FF4001008614F
:102810002046FFF792FC680208D5700206D52168B1
:102820006FF4800008612046FFF789FC28020AD572
:10283000300208D521686FF4000008612046BDE829
:10284000F041FFF7CBBCBDE8F081000010B586B0C9
:10285000044614216846FDF797FE0E492068884219
:1028600015D10D48C16C41F00101C164C06C00215B
:1028700000F001000590802000900220CDE90101C8
:10288000CDE9031069464FF09040FEF7A7FD06B072
:1028900010BD00000004004000100240704770B5F9
:1028A000044690F83C0000260D4601280BD001207C
:1028B00084F83C000C2A4AD007DC82B1042A20D0DC
:1028C000082A06D131E0022070BD102A53D0142A04
:1028D00063D00126002084F83C00304670BD20689B
:1028E00001F07AF82068816941F00801816120686F
:1028F000816921F004018161206881692A6911439D
:1029000011E0206801F0B6F82068816941F40061A7
:1029100081612068816921F4806181612068816919
:102920002A6941EA02218161D4E7206801F0EAF8CE
:102930002068C16941F00801C1612068C16921F0C6
:102940000401C1612068C1692A69114311E020684E
:1029500001F020F92068C16941F40061C16120687B
:10296000C16921F48061C1612068C1692A6941EAB5
:102970000221C161AEE7206801F054F92068016DC1
:1029800041F0080101652068016D21F00401016535
:102990002068016D2A69114311E0206801F07AF97D
:1029A0002068016D41F4006101652068016D21F42A
:1029B000806101652068016D2A6941EA0221016593
:1029C00088E710B5040003D094F83D0010B107E08B
:1029D000012010BD002084F83C00204600F022F8C1
:1029E000022084F83D00211D206800F075FF0120C1
:1029F00084F8480084F83E0084F83F0084F84000E2
:102A000084F8410084F8420084F8430084F84400CC
:102A100084F8450084F8460084F8470084F83D00B7
:102A2000002010BD7047704730B50446022269B1DE
:102A3000042912D0082917D00C291CD0102921D024
:102A400094F84300012824D0012030BD94F83E00C2
:102A50000128F9D184F83E201DE094F83F000128B8
:102A6000F2D184F83F2016E094F840000128EBD121
:102A700084F840200FE094F841000128E4D184F864
:102A8000412008E094F842000128DDD184F842207A
:102A900001E084F843200122206800F07BFF194BFD
:102AA00020681949194A984209D0884207D09042B3
:102AB00005D0174DA84202D0164DA84203D1456C4F
:102AC00045F400454564206898420CD0B0F1804F31
:102AD00009D0114B984206D0104B984203D088423F
:102AE00001D0904207D181680D4A1140062906D0D5
:102AF000B1F5803F03D0016841F001010160002081
:102B000030BD0000002C0140003401400040014075
:102B1000004401400048014000040040000800401B
:102B20000700010070477047FEE7000002490022DD
:102B3000087A0A7270470000EC01002070B500F0BE
:102B400081F8FFF7F3FF3E4C00252178B1B1012950
:102B500025D0012825D0022839D003283ED00428CA
:102B60000BD1607890B3012851D0022853D00328AC
:102B700003D1208AA0F57A70208270BD012810D080
:102B8000022807D00328F8D00428F6D00528F4D16D
:102B9000E56170BD207A80F00100207270BD0128CF
:102BA000FCD120796279904207D2E189238A994247
:102BB00003D210B109B1642A31D9A078207160899B
:102BC000E081A0892082E07860712CE01BE06078D1
:102BD000401CC0B2607004282FD070BD607848B12E
:102BE00001280AD002280BD00328F6D1208A00F54C
:102BF0007A70C1E72079401C07E060790A3008E06C
:102C0000E089643009E02079401E207170BD607950
:102C10000A38607170BDE0896438E08170BDA070D1
:102C20006181A381E270002000F078F82078401CD8
:102C3000C0B22070032800D12570657070BD0000FF
:102C40000000002070B51C4E01213046FEF7EAFC62
:102C50001A4C002588B102213046FEF7E3FC70B122
:102C600004213046FEF7DEFC70B101214FF09040A8
:102C7000FEF7D8FC50B125700DE0012000E00220E5
:102C80002070607820B104E00320F9E70420F7E722
:102C90006560207850B9607840B16168B1F5FA6F2D
:102CA00001D3022805D00A2900D320722078607051
:102CB00070BD0520F9E7000000040048EC01002089
:102CC00000B585B014216846FDF75EFC4FF6FF7035
:102CD000009000200321CDE90201019069460248DD
:102CE000FEF77CFB05B000BD0008004800B585B0CC
:102CF00014216846FDF748FC4FF6FF700090012054
:102D00000190032003900020029069460248FEF7DC
:102D100065FB05B000BD00000008004870B5002448
:102D200006462146204600F003F900F041F94FF431
:102D30009635304600F010F9641CAC42F9D370BDF2
:102D400070B586B014216846FDF71EFC1E48C16CA4
:102D500041F00401C164C16C01F004010591C16C32
:102D600041F00101C164C16C01F001010591C16C28
:102D700041F00201C164C06C032500F0020005901F
:102D80004FF448700124002603958DE851006946F0
:102D90000E48FEF723FB200203958DE851004FF00B
:102DA000904469462046FEF719FBFFF79FFFA06994
:102DB00040F48070A06105481830016841F4087142
:102DC000016006B070BD0000001002400004004821
:102DD000203AD2B2034B02EB420203EB021200F0A4
:102DE00019B8000042410008F0B50E46074600251C
:102DF00040F23F1407E021463846FFF7E9FF103C58
:102E00006D1CA4B2761C3278002A01D0142DF2D3A6
:102E1000F0BD00002DE9F04791468A4600260446A1
:102E200000F086F8DFF84080012700BF00F0C0F80E
:102E30005FF0000539F8160007FA05F10842404630
:102E400001D1408800E0008800F086F86D1C102D4C
:102E5000F0D3641CE4B25146204600F069F8761CB9
:102E6000182EE3D3BDE8F0875400002010B5FFF71B
:102E700067FF002000F014F8084CA080A088A0F59F
:102E80000241303906D000F0D3FB002000F008F8F2
:102E9000A08010BD00F043FBF7E7000054000020C5
:102EA00070B51D490A6842F400720A600A6842F46B
:102EB00080720A60184C103C226842F020022260A6
:102EC000164A1060086840F02000086000BF00BF8C
:102ED00000BF206840F020002060206840F480702F
:102EE0002060FFF7EDFE4FF09041886A40F480705B
:102EF000886200BF00BF00BF0848001F006885B29D
:102F0000886940F480708861FFF7F0FE206840F423
:102F100000702060284670BD28040048140800484E
:102F200001B5BDF800000149488008BD54000020EB
:102F300010B50C460146202000F068F82146BDE897
:102F40001040212000F062B801B5BDF80000014931
:102F5000088008BD54000020134A116841F4007134
:102F60001160114910390B6843F480730B600B68D2
:102F700043F020030B600D4B1860106840F02000F8
:102F8000106000BF00BF00BF086840F0200008606C
:102F9000086840F48070086000BF00BF00BF086888
:102FA00040F4007008607047280400481408004886
:102FB0001449086840F400700860086840F48070A4
:102FC000086010481038026842F0200202600E4B80
:102FD00022221A600A6842F020020A6000BF00BF85
:102FE00000BF016841F020010160016841F4807177
:102FF000016000BF00BF00BF016841F400710160C3
:10300000704700002804004814080048184B10B509
:103010001A6842F400721A601A6842F480721A60E8
:10302000134A103A146844F020041460114C2060D4
:10303000186840F02000186000BF00BF00BF106893
:1030400040F020001060106840F480701060216033
:10305000186840F02000186000BF00BF00BF106873
:1030600040F020001060106840F48070106010BDC7
:10307000280400481408004810B5114C2078002896
:103080004FF0010013D000F01DF8207801284FF018
:1030900002000FD000F016F8207802284FF003004D
:1030A0000BD000F00FF8BDE8104000F01FB800F0A2
:1030B00013F8EAE700F010F8EEE700F00DF8F2E799
:1030C0000000002003490123401E0A7883409A43F0
:1030D0000A7070475A00002003490123401E0A78F5
:1030E00083401A430A7070475A000020094810B5FF
:1030F000007809496FEA00200860084C0122042189
:103100002046FEF794FA20460022BDE81040042134
:10311000FEF78DBA5A00002014080048000C004841
:1031200000EB8100006E00F0F84070478068C0F34B
:10313000C00070478068C0F3800070478068C0F3AB
:1031400080007047C06810F4406F01D000207047C5
:1031500001207047042303EAD15310B51844436992
:10316000C1F3045107248C40A3438A4013434361B5
:1031700010BD00EB8100016E21F00041114301669A
:103180007047000030B58BB00024089409942021CA
:1031900068460A94FDF7F8F91C484FF0A041042551
:1031A00001604FF40031C0E90114C4600461C0E95A
:1031B0000545047744770121016280F82440C46208
:1031C000046380F83840C46380F84040FDF790FE07
:1031D00008B1FDF7BFFB08A90C480894FDF706FCF1
:1031E00008B1FDF7B7FB0A4800900620CDE90104BD
:1031F0007F200594CDE9030569460448FDF762FC8C
:10320000002801D0FDF7A6FB0BB030BD7C000020EC
:103210000008302E30B589B020216846FDF7B4F99A
:1032200019481849002401604902C0E90114C4602A
:1032300004250461C0E90545047744770121016252
:1032400080F82440C462046380F83840C46380F886
:103250004040FDF74DFE08B1FDF77CFB0B480090A8
:103260000620CDE901047F200594CDE903056946D8
:103270000548FDF727FC002801D0FDF76BFB09B0DE
:1032800030BD000000010050E80000200080F03E4A
:10329000F0B587B014216846FDF776F92D48C16C6A
:1032A00041F00401C164C16C01F004010591C16CDD
:1032B00041F02001C164C16C01F020010591C16C95
:1032C00041F00101C164C16C01F001010591C16CC3
:1032D00041F00201C164C16C01F002010591C16CB1
:1032E00041F00801C164C06C1B4E00F008004FF4AF
:1032F0007F440590012221463046FEF798F9174F8A
:10330000002204213846FEF792F90125CDE9004557
:1033100000240294694630460394FEF75FF8CDE935
:10332000005469464FF090400294FEF757F807208A
:10333000CDE9000469460A480294FEF74FF80420DC
:103340000090CDE90154694638460394FEF746F8EB
:1033500007B0F0BD0010024000080048000C004813
:103360000004004810B58CB0002405942148049452
:103370000694079408940A94099400940194029482
:103380004FF08041039401604F21C0E90114611E98
:10339000C0E903148461FEF722FF08B1FDF7DAFAF1
:1033A0004FF48050049004A91248FEF78FFF08B133
:1033B000FDF7D0FA0F48FFF7AFF808B1FDF7CAFAEA
:1033C000089408A90B480A94FEF7BAFE08B1FDF765
:1033D000C1FA0120CDE900400F20CDE902400022D2
:1033E00069460448FFF706F8002801D0FDF7B2FA55
:1033F0000CB010BD5401002010B58EB0002407940D
:10340000089409940A940B940C941C2168460D941A
:10341000FDF7BAF81E481D4901604F21C0E90114AB
:103420004FF6FF71C0E903148461FEF7D8FE08B1BE
:10343000FDF790FA4FF48050079007A91448FEF763
:1034400045FF08B1FDF786FA1148FFF7BAFA08B14F
:10345000FDF780FA0B940BA90D480D94FEF770FE52
:1034600008B1FDF777FA6020CDE900040294042248
:10347000694607480494FFF712FA08B1FDF76AFAA3
:103480000348FFF7E3F90EB010BD00000004004050
:10349000A0010020FEE7FEE710B5134C1348E179C8
:1034A0008170618A018000F027F811484088A0826D
:1034B000618A814201D90A1A00E0421A92B2B2F539
:1034C0007A7F0ED9A379002B0DD1E3796372E18263
:1034D00020830548628307492C30FDF731F801202D
:1034E00000E00020A07110BD00000020640000205A
:1034F0006000002068000020064905480B688278BB
:103500009A630088044A0968B2FBF0F08862704749
:1035100064000020A001002000350C00704730B589
:1035200001210020FFF772FD4FF47A70FDF704FAD5
:1035300000210120FFF76AFD41F290711020FFF792
:1035400065FD4FF41C516020FFF760FD01216120F3
:10355000FFF75CFD02214620FFF758FD48F21001FD
:103560001320FFF753FD48F2FE011220FFF74EFD36
:103570004FF4A0610220FFF749FD41F23001032022
:10358000FFF744FD40F2033421463020FFF73EFDB3
:1035900021463120FFF73AFD21463220FFF736FD64
:1035A000E51E29463320FFF731FD03213420FFF7C4
:1035B0002DFD21463520FFF729FD14213620FFF788
:1035C00025FD21463720FFF721FD21463820FFF752
:1035D0001DFD21463920FFF719FD29463A20FFF746
:1035E00015FD03213B20FFF711FD21463C20FFF78D
:1035F0000DFD4FF4A0513D20FFF708FD4FF4007181
:103600009220FFF703FD21469320FFF7FFFC40F6D1
:103610000D019020FFF7FAFC41F218010320FFF79B
:10362000F5FCBDE8304040F273110720FFF7EEBC17
:1036300010B543F20801E320FFF7E8FC1221E72070
:10364000FFF7E4FC41F23121EF20FFF7DFFC00211E
:103650000120FFF7DBFC4FF4E0610220FFF7D6FC0E
:1036600041F230010320FFF7D1FC00210420FFF7D5
:10367000CDFC40F207210820FFF7C8FC00210920FB
:10368000FFF7C4FC00210A20FFF7C0FC00210C203A
:10369000FFF7BCFC00210D20FFF7B8FC00210F2034
:1036A000FFF7B4FC00211020FFF7B0FC0721112028
:1036B000FFF7ACFC00211220FFF7A8FC002113202B
:1036C000FFF7A4FCC820FDF777FE41F290611020BF
:1036D000FFF79CFC40F227211120FFF797FC3220D6
:1036E000FDF76AFE1D211220FFF790FC3220FDF746
:1036F00063FE4FF400611320FFF788FC142129209A
:10370000FFF784FC0B212B20FFF780FC3220FDF714
:1037100053FE00212020FFF779FC00212120FFF734
:1037200075FC07213020FFF771FC40F20771312052
:10373000FFF76CFC06213220FFF768FC40F20471B1
:103740003520FFF763FC41F604713620FFF75EFC7D
:1037500004213720FFF75AFC00213820FFF756FCE0
:1037600040F206713920FFF751FC40F201713C2014
:10377000FFF74CFC0F213D20FFF748FC00215020B3
:10378000FFF744FCEF215120FFF740FC00215220BD
:10379000FFF73CFC40F23F115320FFF737FC4FF49A
:1037A0001C516020FFF732FC01216120FFF72EFC45
:1037B00000216A20FFF72AFC00218020FFF726FC69
:1037C00000218120FFF722FC00218220FFF71EFC50
:1037D00000218320FFF71AFC00218420FFF716FC4C
:1037E00000218520FFF712FC10219020FFF70EFC2E
:1037F00000219220FFF70AFC03219320FFF706FC2B
:103800004FF488719520FFF701FC00219720FFF706
:10381000FDFB00219820FFF7F9FB41F2180103207E
:10382000FFF7F4FBBDE8104040F273110720FFF7EB
:10383000EDBB704710B5FDF705FF04484168491C12
:10384000416003480168491C016010BDEC01002083
:103850001C00002010B594B038216846FCF794FE97
:1038600014210EA8FCF790FE4FF40070FDF77CFFCA
:10387000012000900004019002200324CDE90704F8
:103880001421CDE90A100C900D9009946846FEF7BA
:103890003BFA08B172B6FEE70F20CDE90E04002016
:1038A00010901190129002210EA8FEF707F900283F
:1038B00001D072B6FEE714B010BD000002480168E6
:1038C00041F470010160704788ED00E00148FEF7A7
:1038D000EBBE0000540100202DE9F0430268264BA6
:1038E000264D274E274C4FF08049984207D0484537
:1038F00005D0A84203D0B04201D0A04203D122F0AB
:1039000070074A683A43204FDFF880C0DFF88080B4
:1039100098420DD048450BD0A84209D0B04207D0FC
:10392000A04205D0B84203D0604501D0404503D144
:1039300022F44075CA682A434D6922F080022A4366
:1039400002608A68C2620A688262984207D0A04216
:1039500005D0B84203D0604501D0404501D1096986
:103960000163012141610169C90703D0016921F0A7
:1039700001010161BDE8F083002C0140000400401A
:103980000008004000340140004001400044014074
:103990000048014010B501F01F030121046A99405D
:1039A0008C430462016A9A401143016210BD10B554
:1039B000846842EA032224F47F440A43224382605B
:1039C00010BD00008268034B1A400A4342F0070111
:1039D000816070478FFFCFFF2DE9F043056A026ACF
:1039E00022F001020262436882691C4C25F0020544
:1039F00022400C6822F0030214438A68194E2A43BD
:103A0000174D194FDFF864C0DFF86490A84207D063
:103A1000B04205D0B84203D0604501D0484506D138
:103A200022F00808CA6842EA080222F00402A8420A
:103A300007D0B04205D0B84203D0604501D0484518
:103A400005D14D6923F440731D438B692B434360BB
:103A50008461496841630262BDE8F0838FFFFEFF25
:103A6000002C01400034014000400140004401406E
:103A700000480140F0B5056A026A22F010020262B5
:103A800042688369194C1B4E23400C6823F4407331
:103A900043EA042425F020038D6843EA0513144DFE
:103AA000A84201D0B04206D1CF6823F0800343EA98
:103AB000071323F04003A8420AD0B04208D00E4DAD
:103AC000A84205D00D4DA84202D00D4DA84207D105
:103AD0004D6922F4406242EA85028D6942EA85021C
:103AE00042608461496881630362F0BDFF8FFFFE1D
:103AF000002C0140003401400040014000440140DE
:103B000000480140F0B5056A026A22F48072026240
:103B10004368C269194C1B4E22400C6822F0030214
:103B2000144325F400728D6842EA0522144DA84220
:103B300001D0B04206D1CF6822F4006242EA0722E7
:103B400022F48062A8420AD0B04208D00E4DA842AA
:103B500005D00E4DA84202D00D4DA84207D14D69A7
:103B600023F4405343EA05138D6943EA0513436088
:103B7000C4614968C1630262F0BD00008FFFFEFFAF
:103B8000002C01400034014000400140004401404D
:103B900000480140F0B5056A026A22F480520262D0
:103BA0004268C369194C1B4E23400C6823F44073D0
:103BB00043EA042425F400538D6843EA0533144D89
:103BC000A84201D0B04206D1CF6823F4004343EAB3
:103BD000073323F48043A8420AD0B04208D00E4DE8
:103BE000A84205D00D4DA84202D00D4DA84207D1E4
:103BF0004D6922F4404242EA85128D6942EA8512FB
:103C00004260C461496801640362F0BDFF8FFFFE3A
:103C1000002C0140003401400040014000440140BC
:103C20000048014030B5056A026A22F4803202621F
:103C30004268036D114C23400C681C4325F400338B
:103C40000D8943EA05430E4DA8420BD00D4DA84205
:103C500008D00D4DA84205D00C4DA84202D00C4D05
:103C6000A84204D14D6922F4803242EA0522426022
:103C7000046549688164036230BD00008FFFFEFF68
:103C8000002C01400034014000400140004401404C
:103C90000048014030B5046A026A22F480120262D0
:103CA0004268036D114D24F400142B400D6843EA63
:103CB00005230D8944EA05540D4DA8420BD00D4D46
:103CC000A84208D00C4DA84205D00C4DA84202D005
:103CD0000B4DA84204D14D6922F4802242EA85228C
:103CE000426003654968C164046230BDFF8FFFFE16
:103CF000002C0140003401400040014000440140DC
:103D0000004801400F4810B5C1694FF47A72B1FB09
:103D1000F2F33C22B3FBF2F402FB143383624EF65F
:103D20006023B1FBF3F3B3FBF2F402FB1432426203
:103D3000054AB1FBF2F11822B1FBF2F302FB1311B9
:103D4000016210BD0000002080EE360010B5036A4D
:103D5000046A24F001040462846924F0F00444EA53
:103D6000021423F00A020A438461026210BD0000BB
:103D700070B5056A046A24F0010404628469124E75
:103D8000B0420ED0B0F1804F0BD0104EB04208D0F0
:103D90000F4EB04205D00F4EB04202D00E4EB04290
:103DA00003D124F00304144301E044F001041A0792
:103DB00024F0F00444EA126225F00A0301F00A013B
:103DC00019438261016270BD002C01400004004073
:103DD00000080040003401400040014010B5036A73
:103DE000046A24F010040462846923F0A00324F41C
:103DF000704444EA023243EA01118261016210BD5B
:103E000030B5046A056A25F010050562856925F458
:103E1000407545EA022222F470454FF6FF7202EA2D
:103E2000033224F0A0032A43A02404EA0111194319
:103E30008261016230BD000010B54A4C86B0207826
:103E4000002828D0012862D047A11820FEF7CCFF17
:103E500022794AA101A8FCF737FA01A94820FEF708
:103E6000C3FF62794AA101A8FCF72EFA01A96020DC
:103E7000FEF7BAFFE2894BA101A8FCF725FA01A9D8
:103E80007820FEF7B1FF228A4BA101A8FCF71CFAAB
:103E900001A9902037E04DA11820FEF7A5FF628A06
:103EA0004EA101A8FCF710FA01A94820FEF79CFFDB
:103EB000E2794FA101A8FCF707FA01A96020FEF7FB
:103EC00093FFA28A4FA101A8FCF7FEF901A978206F
:103ED000FEF78AFF207A50A251A101A8FCF7F4F95D
:103EE00001A99020FEF780FFA06A0090D4E9082382
:103EF0004FA15348FCF7E8F9514A52A101A8FCF739
:103F0000E3F901A9A820FEF76FFF06B010BD51A18B
:103F10001820FEF769FFE28A30A101A8FCF7D4F966
:103F200001A94820FEF760FF627A31A101A8FCF7E1
:103F3000CBF901A96020FEF757FF228B31A101A820
:103F4000FCF7C2F901A97820FEF74EFF628B46A16B
:103F500001A8FCF7B9F901A99020FEF745FF014A35
:103F60002C32CAE7000000202020202020202050F2
:103F70004152412020202020000000002020204429
:103F8000533D2564252520202020202020000000EE
:103F900020202044523D256425252020202020205B
:103FA0002000000020202046533D2564487A202030
:103FB000202020202000000020202046523D2564A3
:103FC000487A2020202020202000000020202020CF
:103FD00020202050574D202020202000202020434A
:103FE000463D2564487A2020202020202000000023
:103FF00020202043443D256425252020202020200A
:104000002000000020202044463D2564487A2020DE
:104010002020202020000000554E4C4F434B000034
:1040200020202053543D25732020202020202000D4
:104030002530326448253032644D253032645300D7
:104040006800002020202025732020202020202010
:104050000000000020202020202020524543442042
:10406000202020200000000020202058463D25640C
:104070002020202020202000FEE70907090E00282C
:1040800004DB00F1E02080F80014704700F00F001E
:1040900000F1E02080F8141D704730380A2801D262
:1040A0000120704700207047FDF7D4FAFFF7D2FBDC
:1040B000FFF7EEF8FFF766F8FFF7ACF8FFF752F9F5
:1040C000FFF79AF9FEF7D2FE0020FEF729FF4FF620
:1040D000FF70FEF739FF0020FEF720FE7F210E481B
:1040E000FCF73AFC7F210D48FCF736FC00210C4818
:1040F000FEF744FA04210B48FEF796FCFCF7C4FBDC
:10410000FEF7BAFFFEF71AFDFFF796FEFFF7FAFD7E
:10411000FFF7C2F9F2E700007C000020E800002071
:1041200054010020A00100204FF04070E1EE100A81
:1041300070470000000000000000010203040607B1
:10414000080900000000000000000000000000005E
:10415000000000000000000000000000000000005F
:10416000000000000000000000000000000000004F
:104170000000000080018001800180018001800139
:1041800080018001800180018001800180010000A8
:10419000000080018001000000000000000000001D
:1041A000000000000000CC00CC00CC00CC00CC0013
:1041B000CC00000000000000000000000000000033
:1041C00000000000000000000000000000000000EF
:1041D0000000000000000000000000000000600C73
:1041E000600C600C30063006FE1FFE1F30063807DC
:1041F0001803FE1FFE1F180318038C018C018C018D
:10420000000000008000E003F80F9C0E8C1C8C184E
:104210008C009800F801E007800E801C8C188C1828
:104220009C18B80CF00FE003800080000000000034
:1042300000000000000000000E181B0C110C1106FD
:104240001106110311039B018E01C038C06C60443C
:104250006044304430441844186C0C3800000000AE
:1042600000000000E001F0033807180618063003CC
:10427000F001F000F8009C310E33061E061C061CEF
:10428000063FFC73F0210000000000000000000069
:104290000000000000000C000C000C000C000C00E2
:1042A0000C00000000000000000000000000000002
:1042B00000000000000000000000000000000000FE
:1042C00000000000000200038001C000C000600088
:1042D000600030003000300030003000300030002E
:1042E000300060006000C000C000800100030002D8
:1042F0000000000020006000C00080018001000379
:104300000003000600060006000600060006000680
:1043100000060003000380018001C000600020004F
:104320000000000000000000000000000000C000CD
:10433000C000D806F807E00130033807000000008D
:10434000000000000000000000000000000000006D
:1043500000000000000000000000000000008001DC
:104360008001800180018001FC3FFC3F80018001D1
:1043700080018001800100000000000000000000BA
:10438000000000000000000000000000000000002D
:10439000000000000000000000000000000000001D
:1043A0000000000080018001000100018000000089
:1043B00000000000000000000000000000000000FD
:1043C00000000000000000000000E007E00700001F
:1043D00000000000000000000000000000000000DD
:1043E00000000000000000000000000000000000CD
:1043F00000000000000000000000000000000000BD
:1044000000000000C000C00000000000000000002C
:1044100000000000000C000C00060006000600036F
:10442000000300038003800180018001C000C00000
:10443000C0006000600000000000000000000000FC
:1044400000000000E003F007380E180C0C180C18E0
:104450000C180C180C180C180C180C180C18180C3C
:10446000380EF007E003000000000000000000002C
:104470000000000000018001C001F00198018801E6
:104480008001800180018001800180018001800124
:104490008001800180010000000000000000000099
:1044A00000000000E003F80F180C0C180C1800189E
:1044B0000018000C000600038001C00060003000FE
:1044C0001800FC1FFC1F000000000000000000009E
:1044D00000000000E001F807180E0C0C0C0C000C9A
:1044E0000006C003C007000C001800180C180C18B8
:1044F000180CF807E00300000000000000000000B6
:1045000000000000000C000E000F000F800DC00C1A
:10451000600C600C300C180C0C0CFC3FFC3F000CC9
:10452000000C000C000C0000000000000000000067
:1045300000000000F80FF80F180018000C00EC0342
:10454000FC071C0E001C0018001800180C181C0C8E
:10455000180EF807E0030000000000000000000053
:1045600000000000C007F00F381C181818000C00DD
:10457000CC03EC0F3C0E1C1C0C180C180C18181C4F
:10458000380EF007E003000000000000000000000B
:1045900000000000FC1FFC1F000C000600060003CA
:1045A00080038001C001C000E00060006000700076
:1045B000300030003000000000000000000000006B
:1045C00000000000E003F007380E180C180C180C5F
:1045D0003806F007F007180C0C180C180C180C18FB
:1045E000380CF80FE003000000000000000000009D
:1045F00000000000E003F007380E1C0C0C180C182B
:104600000C181C1C381EF81BE0190018000C000CBC
:104610001C0EF807F0010000000000000000000080
:104620000000000000000000000000000000800109
:1046300080010000000000000000000000000000F9
:104640000000800180010000000000000000000068
:1046500000000000000000000000000000008001D9
:1046600080010000000000000000000000000000C9
:1046700000008001800100010001800000000000B6
:10468000000000000000000000000000000000002A
:1046900000000010001C800FE003F8001800F80074
:1046A000E003800F001C001000000000000000006C
:1046B00000000000000000000000000000000000FA
:1046C0000000F81F000000000000F81F00000000BC
:1046D00000000000000000000000000000000000DA
:1046E00000000000000000000000000000000000CA
:1046F000000008003800F001C007001F0018001F6C
:10470000C007F001380008000000000000000000B1
:1047100000000000E003F80F180C0C180C1800182B
:10472000000C000600038001C000C000C0000000B3
:104730000000C000C00000000000000000000000F9
:10474000000000000000E00718180420C229224AD7
:10475000114409440944094409221113E20C02409E
:1047600004201818E007000000000000000000000E
:104770000000000080038003C006C006C006600C75
:10478000600C301830183018F83FF83F1C700C607F
:104790000C6006C006C00000000000000000000021
:1047A00000000000FC03FC0F0C0C0C180C180C187B
:1047B0000C0CFC07FC0F0C180C300C300C300C30BF
:1047C0000C18FC1FFC0700000000000000000000A7
:1047D00000000000C007F01F38381C300C70066065
:1047E00006000600060006000600060006600C70C3
:1047F0001C30F01FE0070000000000000000000077
:1048000000000000FE03FE0F060E06180618063014
:104810000630063006300630063006300618061818
:10482000060EFE0FFE030000000000000000000066
:1048300000000000FC3FFC3F0C000C000C000C00D2
:104840000C00FC1FFC1F0C000C000C000C000C00EA
:104850000C00FC3FFC3F00000000000000000000D6
:1048600000000000F83FF83F18001800180018007A
:104870001800F81FF81F180018001800180018007A
:1048800018001800180000000000000000000000E0
:1048900000000000E00FF83F3C780E6006E007C023
:1048A0000300030003FE03FE03C007C006C00EC0E2
:1048B0003CF0F83FE00F00000000000000000000A6
:1048C000000000000C300C300C300C300C300C3080
:1048D0000C30FC3FFC3F0C300C300C300C300C30FA
:1048E0000C300C300C300000000000000000000014
:1048F00000000000800180018001800180018001B2
:10490000800180018001800180018001800180019F
:104910008001800180010000000000000000000014
:104920000000000000060006000600060006000663
:104930000006000600060006000600061806180617
:104940003807F003E0010000000000000000000054
:104950000000000006300618060C06060603860155
:10496000C60066007600DE008E0106030606060C11
:10497000061806300660000000000000000000007D
:104980000000000018001800180018001800180097
:104990001800180018001800180018001800180057
:1049A0001800F81FF81F00000000000000000000C1
:1049B000000000000EE01EF01EF01EF036D836D8C3
:1049C00036D836D866CC66CC66CCC6C6C6C6C6C691
:1049D000C6C686C386C300000000000000000000B9
:1049E000000000000C301C303C303C306C306C302F
:1049F000CC30CC308C310C330C330C360C360C3CB8
:104A00000C3C0C380C3000000000000000000000DE
:104A100000000000E007F81F1C380E70066003C09D
:104A200003C003C003C003C003C003C006600E7010
:104A30001C38F81FE0070000000000000000000024
:104A400000000000FC0FFC1F0C380C300C300C3048
:104A50000C300C18FC1FFC070C000C000C000C00A8
:104A60000C000C000C000000000000000000000022
:104A700000000000E007F81F1C380E70066003E01D
:104A800003C003C003C003C003C007E006630E3FBA
:104A90001C3CF83FE0F700C00000000000000000F0
:104AA00000000000FE0FFE1F0638063006300630FC
:104AB0000638FE1FFE0706030606060C0618061833
:104AC0000630063006600000000000000000000014
:104AD00000000000E003F80F1C0C0C180C180C0070
:104AE0001C00F803E00F001E0038063006300E30C0
:104AF0001C1CF80FE0070000000000000000000090
:104B000000000000FE7FFE7F8001800180018001A7
:104B1000800180018001800180018001800180018D
:104B20008001800180010000000000000000000002
:104B3000000000000C300C300C300C300C300C300D
:104B40000C300C300C300C300C300C300C300C3085
:104B50001818F81FE0070000000000000000000027
:104B60000000000003600630063006300C180C18F8
:104B70000C18180C180C380E30063006700760033D
:104B80006003C001C0010000000000000000000040
:104B9000000000000360C361C361C3616633663314
:104BA00066336633663366336C1B6C1B6C1B2C1AC6
:104BB0003C1E380E380E000000000000000000000F
:104BC000000000000FE00C7018303018700C600E00
:104BD000C00780038003C003E006700C301C181867
:104BE0000C300E6007E00000000000000000000034
:104BF0000000000003C006600C301C383818300C70
:104C00006006E007C003800180018001800180010F
:104C10008001800180010000000000000000000011
:104C200000000000FC7FFC7F006000300018000CDA
:104C3000000600038001C0006000300018000C0076
:104C40000600FE7FFE7F0000000000000000000064
:104C500000000000E003E00360006000600060000E
:104C60006000600060006000600060006000600044
:104C7000600060006000600060006000E003E0032E
:104C80000000000030003000600060006000C000E4
:104C9000C000C000C001800180018001000300034A
:104CA00000030006000600000000000000000000F5
:104CB00000000000E003E003000300030003000322
:104CC00000030003000300030003000300030003CC
:104CD000000300030003000300030003E003E003FC
:104CE000000000000000C001C00160036003600319
:104CF00030063006180C180C000000000000000000
:104D000000000000000000000000000000000000A3
:104D10000000000000000000000000000000000093
:104D20000000000000000000000000000000000083
:104D300000000000FFFFFFFF000000000000000077
:104D4000000000000C000C000C000C000C000C001B
:104D50000000000000000000000000000000000053
:104D60000000000000000000000000000000000043
:104D70000000000000000000000000000000F00340
:104D8000F8071C0C0C0C000FF00FF80C0C0C0C0CA2
:104D90001C0FF80FF01800000000000000000000D9
:104DA0000000000018001800180018001800D803B0
:104DB000F80F380C18181818181818181818181888
:104DC000380CF80FD80300000000000000000000BD
:104DD0000000000000000000000000000000C00310
:104DE000F007300E180C1800180018001800180CE6
:104DF000300EF007C00300000000000000000000BB
:104E00000000000000180018001800180018C01B4F
:104E1000F01F301C18181818181818181818181817
:104E2000301CF01FC01B000000000000000000004C
:104E30000000000000000000000000000000C003AF
:104E4000F00F300C1818F81FF81F18001800381849
:104E5000301CF00FC0070000000000000000000040
:104E600000000000800FC00FC000C000C000F007AD
:104E7000F007C000C000C000C000C000C000C000FB
:104E8000C000C000C00000000000000000000000E2
:104E90000000000000000000000000000000E00D25
:104EA000F80F180E0C0C0C0C0C0C0C0C0C0C0C0C45
:104EB000180EF80FE00D000C0C0C1C06F807F001A2
:104EC0000000000018001800180018001800D8078B
:104ED000F80F381C18181818181818181818181857
:104EE0001818181818180000000000000000000032
:104EF00000000000C000C000000000000000C00072
:104F0000C000C000C000C000C000C000C000C000A1
:104F1000C000C000C0000000000000000000000051
:104F200000000000C000C000000000000000C00041
:104F3000C000C000C000C000C000C000C000C00071
:104F4000C000C000C000C000C000C000F800780071
:104F5000000000000C000C000C000C000C000C0CFD
:104F60000C060C038C01CC006C00FC009C018C0333
:104F70000C030C060C0C00000000000000000000F8
:104F800000000000C000C000C000C000C000C000A1
:104F9000C000C000C000C000C000C000C000C00011
:104FA000C000C000C00000000000000000000000C1
:104FB00000000000000000000000000000007C3C39
:104FC000FF7EC7E383C183C183C183C183C183C122
:104FD00083C183C183C10000000000000000000005
:104FE0000000000000000000000000000000980722
:104FF000F80F381C18181818181818181818181836
:105000001818181818180000000000000000000010
:105010000000000000000000000000000000C003CD
:10502000F00F300C18181818181818181818181825
:10503000300CF00FC0030000000000000000000072
:105040000000000000000000000000000000D80385
:10505000F80F380C181818181818181818181818E5
:10506000380CF80FD80318001800180018001800A2
:105070000000000000000000000000000000C01B55
:10508000F01F301C181818181818181818181818A5
:10509000301CF01FC01B0018001800180018001862
:1050A0000000000000000000000000000000B00749
:1050B000F00370003000300030003000300030006D
:1050C0003000300030000000000000000000000050
:1050D0000000000000000000000000000000E003ED
:1050E000F003380E180C3800F003C007000C180C41
:1050F000380EF007E0030000000000000000000090
:105100000000000000008000C000C000C000F007E8
:10511000F007C000C000C000C000C000C000C00058
:10512000C000C00780070000000000000000000071
:10513000000000000000000000000000000018183F
:1051400018181818181818181818181818181818DF
:10515000381CF01FE01900000000000000000000F3
:1051600000000000000000000000000000000C181B
:10517000180C180C180C300630063006600360035B
:105180006003C001C001000000000000000000003A
:105190000000000000000000000000000000C1410D
:1051A000C141C36163636363636336363636363643
:1051B0001C1C1C1C1C1C0000000000000000000047
:1051C00000000000000000000000000000001C388B
:1051D000381C300C600660036003600360036006E7
:1051E000300C381C1C3800000000000000000000DB
:1051F0000000000000000000000000000000183067
:10520000301830187018600C600CE00CC006C00636
:1052100080038003800380018001C001F0007000E2
:105220000000000000000000000000000000FC1F63
:10523000FC1F000C000600038001C000600030006D
:105240001800FC1FFC1F0000000000000000000010
:105250000000000000038001C000C000C000C000CA
:10526000C000C00060006000300060004000C0006E
:10527000C000C000C000C000C000800100030000EA
:105280000000000080018001800180018001800118
:105290008001800180018001800180018001800106
:1052A00080018001800180018001800180018001F6
:1052B000000000006000C000C0018001800180018A
:1052C000800180010003000300060003000180014B
:1052D00080018001800180018001C0006000000029
:1052E00000000000000000000000000000000000BE
:1052F0000000F010F81F080F000000000000000080
:10530000000000000000000000000000000000009D
:10531000000004000008000000000000000200017E
:105320000000100044530008000000206800000046
:1053300014020008AC53000868000020F0070000C9
:10534000300200080000015001500000000064001D
:10535000D0076400D007000000000000000000003B
:10536000000000000000000000000000000000003D
:1053700030304830304D3030530000000000000025
:10538000000000000000000010000000010000000C
:10539000000000000024F4000000FFFF00000000F7
:0C53A00000000000000000000000000001
:04000005080001D915
:00000001FF
