:020000040800F2
:1000000010040020ED010008EF0900087902000843
:10001000ED09000859020008E10D00080000000089
:10002000000000000000000000000000070D0008B4
:100030005B02000800000000F1090008090D00083B
:10004000070200080702000807020008070200086C
:10005000070200080702000807020008070200085C
:10006000070200080702000807020008070200084C
:10007000070200080702000807020008070200083C
:10008000070200080000000007020008070200083D
:10009000070200080702000807020008070200081C
:1000A000070200080702000807020008070200080C
:1000B00007020008070200080702000807020008FC
:1000C00007020008070200080702000807020008EC
:1000D00007020008070200080702000807020008DC
:1000E00007020008070200080702000807020008CC
:1000F00007020008070200080702000800000000CD
:1001000000000000070200080000000007020008CD
:1001100007020008000000000702000807020008AC
:10012000070200080702000807020008070200088B
:10013000070200080000000000000000070200089D
:10014000070200080702000800000000000000008D
:10015000000000000000000000000000000000009F
:10016000000000000000000000000000070200087E
:10017000070200080000000000000000000000006E
:10018000000000000702000800000000000000005E
:10019000000000000000000000000000000000005F
:1001A000000000000000000007020008070200082D
:1001B000070200080702000807020008000000000C
:1001C000000000000702000800000000000000001E
:1001D0000702000807020008DFF80CD000F02AF838
:1001E00000480047010E0008100400200648804720
:1001F00006480047FEE7FEE7FEE7FEE7FEE7FEE70C
:10020000FEE7FEE7FEE7FEE7C50D0008D90100089E
:10021000D2B201E000F8012B491EFBD27047002248
:10022000F6E710B513460A4604461946FFF7F0FFF5
:10023000204610BD064C074D06E0E06840F0010383
:1002400094E8070098471034AC42F6D3FFF7C8FF94
:100250007420000894200008FEE77047002240F652
:10026000B83306E00021491C89B29942FBD3521CE5
:1002700092B28242F6D37047FEE7000000B587B025
:1002800018216846FFF7CBFF4FF6FF700090002063
:100290000321CDE9010104906946024800F0D4F938
:1002A00007B000BD0008004800B587B018216846B7
:1002B000FFF7B5FF4FF6FF7000900120019003207B
:1002C00002900020039004906946024800F0BCF9B7
:1002D00007B000BD0008004870B50024064621465E
:1002E000204600F0F5F800F033F94FF4963530462B
:1002F00000F002F9641CAC42F9D370BD70B586B051
:1003000018216846FFF78BFF012000F091F90220C9
:1003100000F08EF9042000F08BF94FF448700125AD
:1003200000240326CDE90005CDE902646946049462
:100330000E4800F089F92802CDE90264CDE90005F4
:1003400004944FF090446946204600F07DF9FFF791
:10035000ABFFA06940F48070A061044818300168C8
:1003600041F40871016006B070BD0000000400484F
:10037000203AD2B2034B02EB420203EB021200F02E
:1003800019B80000A40E0008F0B50E460746002577
:1003900040F23F1407E021463846FFF7E9FF103CE2
:1003A0006D1CA4B2761C3278002A01D0142DF2D331
:1003B000F0BD00002DE9F04791468A46002604462C
:1003C00000F086F8DFF84080012700BF00F0C0F899
:1003D0005FF0000539F8160007FA05F108424046BB
:1003E00001D1408800E0008800F086F86D1C102DD7
:1003F000F0D3641CE4B25146204600F069F8761C44
:10040000182EE3D3BDE8F0870000002010B5FFF7F9
:1004100075FF002000F014F8084CA080A088A0F51B
:100420000241303906D000F06DFB002000F008F8E2
:10043000A08010BD00F0DDFAF7E70000000000200A
:1004400070B51D490A6842F400720A600A6842F4F5
:1004500080720A60184C103C226842F02002226030
:10046000164A1060086840F02000086000BF00BF16
:1004700000BF206840F020002060206840F48070B9
:100480002060FFF7FBFE4FF09041886A40F48070D7
:10049000886200BF00BF00BF0848001F006885B227
:1004A000886940F480708861FFF7FEFE206840F4A0
:1004B00000702060284670BD2804004814080048D9
:1004C00001B5BDF800000149488008BD00000020CA
:1004D00010B50C460146202000F068F82146BDE822
:1004E0001040212000F062B801B5BDF800000149BC
:1004F000088008BD00000020134A116841F4007113
:100500001160114910390B6843F480730B600B685C
:1005100043F020030B600D4B1860106840F0200082
:10052000106000BF00BF00BF086840F020000860F6
:10053000086840F48070086000BF00BF00BF086812
:1005400040F4007008607047280400481408004810
:100550001449086840F400700860086840F480702E
:10056000086010481038026842F0200202600E4B0A
:1005700022221A600A6842F020020A6000BF00BF0F
:1005800000BF016841F020010160016841F4807101
:10059000016000BF00BF00BF016841F4007101604D
:1005A000704700002804004814080048184B10B594
:1005B0001A6842F400721A601A6842F480721A6073
:1005C000134A103A146844F020041460114C20605F
:1005D000186840F02000186000BF00BF00BF10681E
:1005E00040F020001060106840F4807010602160BE
:1005F000186840F02000186000BF00BF00BF1068FE
:1006000040F020001060106840F48070106010BD51
:100610002804004814080048044908B5CA6C02437D
:10062000CA64C96C0140009108BD0000001002407E
:10063000044908B5CA6C0243CA64C96C0140009100
:1006400008BD000000100240F0B50A68032492FAC9
:10065000A2F2B2FA82F30F257BE0324601269E40D9
:10066000324075D0D1F804E0066892FAA2F7B7FAE2
:1006700087F74FEA470C04FA0CF7BE4392FAA2F749
:10068000B7FA87F77F000EFA07FE46EA0E06066005
:100690004E68012E01D0022E15D1D1F808E08668EF
:1006A00092FAA2F7B7FA87F74FEA470C04FA0CF769
:1006B000BE4392FAA2F7B7FA87F77F000EFA07FE59
:1006C00046EA0E068660D1F810C0C66892FAA2F714
:1006D000B7FA87F77F0004FA07FE92FAA2F7B7FA93
:1006E00087F77F0026EA0E060CFA07FC46EA0C069E
:1006F000C6604E68022E2BD1FF2A14D84E69076AB5
:1007000092FAA2FCBCFA8CFC4FEA8C0C05FA0CFCA9
:1007100092FAA2F2B2FA82F2920027EA0C0796400D
:100720003743076214E04F69466A120A92FAA2FC44
:10073000BCFA8CFC4FEA8C0C05FA0CFC92FAA2F283
:10074000B2FA82F2920026EA0C0697403E434662D5
:100750005B1C0A681646DA407FF47FAF4A68012ABC
:1007600001D0022A07D1CB6841683246914306FB8B
:1007700003F2114341600020F0BD4FF47A71B0FBE9
:10078000F1F14FF0E020491E416100218161052116
:1007900001617047014908607047000008000020AF
:1007A00008B54FF0E0210A690092421C00D0401CBD
:1007B0000A69D20300D5401E0028F9D108BD000007
:1007C0002DE9F04F87B018216846FFF728FD042077
:1007D000FFF722FF2020FFF71FFF0120FFF71CFF7C
:1007E0000220FFF719FF7F4E4FF40050B0624FF424
:1007F000804AC6F828A04FF4004BC6F828B0012163
:10080000B1620221B1620421B1620821B1621021FA
:10081000B1622021B1624021B1628021B1624711F1
:10082000B7624FF40078C6F828804FF090418F628D
:10083000C110B1628110B1624110B162DFF8A891BC
:100840002021C9F82810C9F82870C9F8288000901C
:1008500001250024CDE901540394694630460494EF
:10086000FFF7F2FECDF800A0CDE9015403946946EC
:1008700030460494FFF7E8FECDF800B0CDE901540E
:100880000394694630460494FFF7DEFE0095CDE9F7
:1008900001540394694630460494FFF7D5FE0220C4
:1008A0000090CDE901540394694630460494FFF763
:1008B000CBFE04200090CDE90154039469463046F4
:1008C0000494FFF7C1FE08200090CDE90154039481
:1008D000694630460494FFF7B7FE10200090CDE93A
:1008E00001540394694630460494FFF7ADFE4FF07F
:1008F000200ACDF800A0CDE90154039469463046A2
:100900000494FFF7A1FE40200090CDE90154039428
:10091000694630460494FFF797FE80200090CDE9A9
:1009200001540394694630460494FFF78DFE009706
:10093000CDE901540394694630460494FFF784FEE0
:10094000CDF80080CDE90154039469463046049403
:10095000FFF77AFE0097CDE90154039469464FF002
:1009600090400494FFF770FEA8020090CDE9015476
:100970000394694630460494FFF766FEE80200904F
:10098000CDE901540394694630460494FFF75CFEB8
:1009900028030090CDE9015403946946304604943D
:1009A000FFF752FECDF800A0CDE90154039469464B
:1009B00048460494FFF748FE0097CDE9015403949C
:1009C000694648460494FFF73FFECDF80080CDE924
:1009D00001540394694648460494FFF735FE07B076
:1009E000BDE8F08F0008004800040048FEE77047AB
:1009F000704730B501210020FFF7D8FD4FF47A7021
:100A0000FFF72CFC00210120FFF7D0FD41F290718F
:100A10001020FFF7CBFD4FF41C516020FFF7C6FDFF
:100A200001216120FFF7C2FD02214620FFF7BEFD34
:100A300048F210011320FFF7B9FD48F2FE01122021
:100A4000FFF7B4FD4FF4A0610220FFF7AFFD41F2C4
:100A500030010320FFF7AAFD40F203342146302085
:100A6000FFF7A4FD21463120FFF7A0FD21463220EB
:100A7000FFF79CFDE51E29463320FFF797FD032174
:100A80003420FFF793FD21463520FFF78FFD142119
:100A90003620FFF78BFD21463720FFF787FD2146E3
:100AA0003820FFF783FD21463920FFF77FFD2946D7
:100AB0003A20FFF77BFD03213B20FFF777FD21461E
:100AC0003C20FFF773FD4FF4A0513D20FFF76EFD72
:100AD0004FF400719220FFF769FD21469320FFF744
:100AE00065FD40F60D019020FFF760FD41F2180111
:100AF0000320FFF75BFDBDE8304040F27311072093
:100B0000FFF754BD10B543F20801E320FFF74EFD97
:100B10001221E720FFF74AFD41F23121EF20FFF7D4
:100B200045FD00210120FFF741FD4FF4E061022067
:100B3000FFF73CFD41F230010320FFF737FD0021B4
:100B40000420FFF733FD40F207210820FFF72EFDB8
:100B500000210920FFF72AFD00210A20FFF726FDCA
:100B600000210C20FFF722FD00210D20FFF71EFDC4
:100B700000210F20FFF71AFD00211020FFF716FDBE
:100B800007211120FFF712FD00211220FFF70EFDB3
:100B900000211320FFF70AFDC820FFF701FE41F2F4
:100BA00090611020FFF702FD40F227211120FFF78E
:100BB000FDFC3220FFF7F4FD1D211220FFF7F6FCAB
:100BC0003220FFF7EDFD4FF400611320FFF7EEFC3C
:100BD00014212920FFF7EAFC0B212B20FFF7E6FC6C
:100BE0003220FFF7DDFD00212020FFF7DFFC002190
:100BF0002120FFF7DBFC07213020FFF7D7FC40F274
:100C000007713120FFF7D2FC06213220FFF7CEFC1E
:100C100040F204713520FFF7C9FC41F6047136201B
:100C2000FFF7C4FC04213720FFF7C0FC0021382067
:100C3000FFF7BCFC40F206713920FFF7B7FC40F229
:100C400001713C20FFF7B2FC0F213D20FFF7AEFC05
:100C500000215020FFF7AAFCEF215120FFF7A6FC4E
:100C600000215220FFF7A2FC40F23F115320FFF772
:100C70009DFC4FF41C516020FFF798FC012161207E
:100C8000FFF794FC00216A20FFF790FC00218020F0
:100C9000FFF78CFC00218120FFF788FC00218220D7
:100CA000FFF784FC00218320FFF780FC00218420D3
:100CB000FFF77CFC00218520FFF778FC10219020B5
:100CC000FFF774FC00219220FFF770FC03219320B2
:100CD000FFF76CFC4FF488719520FFF767FC00214B
:100CE0009720FFF763FC00219820FFF75FFC41F29B
:100CF00018010320FFF75AFCBDE8104040F27311C1
:100D00000720FFF753BC704770470000284810B514
:100D1000016821F00F0141F00301016000682548DE
:100D2000016821F4C06141F400710160224801684A
:100D300041F4807101600168C1F380210029FAD07B
:100D4000416821F0FE4141F080414160C26841F2BA
:100D500012411A4B1A401143C160C16841F08071C1
:100D6000C160016841F0807101600168C1F34061B8
:100D70000029FAD0816841F003018160816801F0A7
:100D80000C010C29FAD1816821F0F00181608168A1
:100D900021F4E0618160816821F460518160084C38
:100DA0002046FFF7EAFC2046BDE81040FFF7F2BC02
:100DB0000020024000700040001002400C80FFF94B
:100DC00000B4C4040548016841F47001016003499E
:100DD0004FF00060803908607047000088ED00E047
:100DE000FEE702E008C8121F08C1002AFAD17047C6
:100DF0007047002001E001C1121F002AFBD170479B
:100E00001F4808B5016E41F001010166016E01F055
:100E100001010091816D41F080518165806D19491A
:100E200000F08050009008684FF6FF021040164A0C
:100E300040F44070104308601448816841F48041D8
:100E40008160FFF763FFFFF7BBFCFFF7DFFA642069
:100E5000FFF7A6FC0020FFF733FB4FF6FF70FFF70C
:100E600043FB0020FFF738FA6420FFF799FC08A144
:100E70006020FFF789FA4FF47A70FFF791FCFEE7E4
:100E8000001002400CED00E00000FA050070004088
:100E90002020202048656C6C6F2C776F726C642E5C
:100EA00020202000000000000000000000000000E2
:100EB0000000000000000000000000000000000032
:100EC0000000000000000000000000000000000022
:100ED000000000000000800180018001800180018D
:100EE00080018001800180018001800180018001FA
:100EF00000000000800180010000000000000000F0
:100F00000000000000000000CC00CC00CC00CC00B1
:100F1000CC00CC0000000000000000000000000039
:100F200000000000000000000000000000000000C1
:100F300000000000000000000000000000000000B1
:100F4000600C600C600C30063006FE1FFE1F300681
:100F500038071803FE1FFE1F180318038C018C01AD
:100F60008C01000000008000E003F80F9C0E8C1C38
:100F70008C188C009800F801E007800E801C8C18FB
:100F80008C189C18B80CF00FE00380008000000063
:100F9000000000000000000000000E181B0C110CE7
:100FA00011061106110311039B018E01C038C06C9C
:100FB00060446044304430441844186C0C380000DD
:100FC000000000000000E001F003380718061806D2
:100FD0003003F001F000F8009C310E33061E061CB1
:100FE000061C063FFC73F02100000000000000001A
:100FF00000000000000000000C000C000C000C00C1
:101000000C000C00000000000000000000000000C8
:1010100000000000000000000000000000000000D0
:10102000000000000000000200038001C000C000BA
:1010300060006000300030003000300030003000D0
:101040003000300060006000C000C000800100037C
:1010500000020000000020006000C000800180014C
:101060000003000300060006000600060006000656
:10107000000600060003000380018001C00060003C
:101080002000000000000000000000000000000040
:10109000C000C000D806F807E001300338070000A0
:1010A0000000000000000000000000000000000040
:1010B0000000000000000000000000000000000030
:1010C00080018001800180018001FC3FFC3F8001A4
:1010D000800180018001800100000000000000000C
:1010E0000000000000000000000000000000000000
:1010F00000000000000000000000000000000000F0
:10110000000000000000800180010001000180005B
:1011100000000000000000000000000000000000CF
:10112000000000000000000000000000E007E007F1
:1011300000000000000000000000000000000000AF
:10114000000000000000000000000000000000009F
:10115000000000000000000000000000000000008F
:10116000000000000000C000C000000000000000FF
:10117000000000000000000C000C00060006000645
:101180000003000300038003800180018001C00090
:10119000C000C0006000600000000000000000000F
:1011A000000000000000E003F007380E180C0C18D7
:1011B0000C180C180C180C180C180C180C180C180F
:1011C000180C380EF007E0030000000000000000DB
:1011D00000000000000000018001C001F001980142
:1011E00088018001800180018001800180018001EF
:1011F00080018001800180010000000000000000EB
:10120000000000000000E003F80F180C0C180C1888
:1012100000180018000C000600038001C0006000E8
:1012200030001800FC1FFC1F000000000000000040
:10123000000000000000E001F807180E0C0C0C0C78
:10124000000C0006C003C007000C001800180C18A2
:101250000C18180CF807E003000000000000000064
:10126000000000000000000C000E000F000F800DB9
:10127000C00C600C600C300C180C0C0CFC3FFC3FDC
:10128000000C000C000C000C00000000000000002E
:10129000000000000000F80FF80F180018000C0004
:1012A000EC03FC071C0E001C0018001800180C189A
:1012B0001C0C180EF807E0030000000000000000FE
:1012C000000000000000C007F00F381C18181800BC
:1012D0000C00CC03EC0F3C0E1C1C0C180C180C184A
:1012E000181C380EF007E0030000000000000000AA
:1012F000000000000000FC1FFC1F000C00060006A0
:10130000000380038001C001C000E00060006000B5
:1013100070003000300030000000000000000000CD
:10132000000000000000E003F007380E180C180C55
:10133000180C3806F007F007180C0C180C180C18CD
:101340000C18380CF80FE00300000000000000004B
:10135000000000000000E003F007380E1C0C0C1821
:101360000C180C181C1C381EF81BE0190018000C77
:10137000000C1C0EF807F001000000000000000047
:10138000000000000000000000000000000000005D
:10139000800180010000000000000000000000004B
:1013A000000000008001800100000000000000003B
:1013B000000000000000000000000000000000002D
:1013C000800180010000000000000000000000001B
:1013D0000000000080018001000100018000000089
:1013E00000000000000000000000000000000000FD
:1013F000000000000010001C800FE003F80018003F
:10140000F800E003800F001C001000000000000046
:1014100000000000000000000000000000000000CC
:1014200000000000F81F000000000000F81F00008E
:1014300000000000000000000000000000000000AC
:10144000000000000000000000000000000000009C
:101450000000000008003800F001C007001F00185D
:10146000001FC007F0013800080000000000000065
:10147000000000000000E003F80F180C0C180C1816
:101480000018000C000600038001C000C000C0006E
:1014900000000000C000C0000000000000000000CC
:1014A0000000000000000000E00718180420C22916
:1014B000224A114409440944094409221113E20C47
:1014C000024004201818E00700000000000000009F
:1014D00000000000000080038003C006C006C006B4
:1014E000600C600C301830183018F83FF83F1C7052
:1014F0000C600C6006C006C0000000000000000088
:10150000000000000000FC03FC0F0C0C0C180C1871
:101510000C180C0CFC07FC0F0C180C300C300C30A9
:101520000C300C18FC1FFC0700000000000000003D
:10153000000000000000C007F01F38381C300C709D
:1015400006600600060006000600060006000660AB
:101550000C701C30F01FE0070000000000000000CD
:10156000000000000000FE03FE0F060E061806181D
:1015700006300630063006300630063006300618D3
:101580000618060EFE0FFE0300000000000000001B
:10159000000000000000FC3FFC3F0C000C000C00B1
:1015A0000C000C00FC1FFC1F0C000C000C000C00BD
:1015B0000C000C00FC3FFC3F00000000000000009D
:1015C000000000000000F83FF83F18001800180065
:1015D00018001800F81FF81F18001800180018004D
:1015E000180018001800180000000000000000009B
:1015F000000000000000E00FF83F3C780E6006E0BD
:1016000007C00300030003FE03FE03C007C006C0BB
:101610000EC03CF0F83FE00F0000000000000000AA
:101620000000000000000C300C300C300C300C308E
:101630000C300C30FC3FFC3F0C300C300C300C30CC
:101640000C300C300C300C300000000000000000AA
:101650000000000000008001800180018001800105
:101660008001800180018001800180018001800172
:101670008001800180018001000000000000000066
:10168000000000000000000600060006000600063C
:101690000006000600060006000600060006180602
:1016A00018063807F003E001000000000000000009
:1016B00000000000000006300618060C06060603AF
:1016C0008601C60066007600DE008E01060306066F
:1016D000060C06180630066000000000000000003E
:1016E0000000000000001800180018001800180082
:1016F000180018001800180018001800180018002A
:1017000018001800F81FF81F00000000000000007B
:101710000000000000000EE01EF01EF01EF036D8A3
:1017200036D836D836D866CC66CC66CCC6C6C6C6E1
:10173000C6C6C6C686C386C30000000000000000FF
:101740000000000000000C301C303C303C306C309D
:101750006C30CC30CC308C310C330C330C360C3636
:101760000C3C0C3C0C380C30000000000000000069
:10177000000000000000E007F81F1C380E70066033
:1017800003C003C003C003C003C003C003C006609E
:101790000E701C38F81FE007000000000000000079
:1017A000000000000000FC0FFC1F0C380C300C3057
:1017B0000C300C300C18FC1FFC070C000C000C004B
:1017C0000C000C000C000C000000000000000000E9
:1017D000000000000000E007F81F1C380E700660D3
:1017E00003E003C003C003C003C003C007E00663F7
:1017F0000E3F1C3CF83FE0F700C000000000000076
:10180000000000000000FE0FFE1F06380630063004
:1018100006300638FE1FFE0706030606060C0618ED
:1018200006180630063006600000000000000000C8
:10183000000000000000E003F80F1C0C0C180C184E
:101840000C001C00F803E00F001E003806300630C4
:101850000E301C1CF80FE007000000000000000024
:10186000000000000000FE7FFE7F800180018001FB
:101870008001800180018001800180018001800160
:101880008001800180018001000000000000000054
:101890000000000000000C300C300C300C300C301C
:1018A0000C300C300C300C300C300C300C300C3058
:1018B0000C301818F81FE0070000000000000000BE
:1018C00000000000000003600630063006300C18EF
:1018D0000C180C18180C180C380E3006300670074F
:1018E00060036003C001C0010000000000000000B0
:1018F0000000000000000360C361C361C361663380
:10190000663366336633663366336C1B6C1B6C1B45
:101910002C1A3C1E380E380E00000000000000009B
:101920000000000000000FE00C7018303018700C40
:10193000600EC00780038003C003E006700C301CFB
:1019400018180C300E6007E00000000000000000D6
:1019500000000000000003C006600C301C3838187E
:10196000300C6006E007C003800180018001800127
:101970008001800180018001000000000000000063
:10198000000000000000FC7FFC7F006000300018B9
:10199000000C000600038001C00060003000180049
:1019A0000C000600FE7FFE7F00000000000000002B
:1019B000000000000000E003E00360006000600041
:1019C0006000600060006000600060006000600017
:1019D0006000600060006000600060006000E00384
:1019E000E003000000003000300060006000600094
:1019F000C000C000C000C001800180018001000360
:101A000000030003000600060000000000000000C4
:101A1000000000000000E003E003000300030003F7
:101A2000000300030003000300030003000300039E
:101A30000003000300030003000300030003E003AE
:101A4000E003000000000000C001C001600360036B
:101A5000600330063006180C180C0000000000006F
:101A60000000000000000000000000000000000076
:101A70000000000000000000000000000000000066
:101A80000000000000000000000000000000000056
:101A9000000000000000FFFFFFFF0000000000004A
:101AA0000000000000000C000C000C000C000C00FA
:101AB0000C0000000000000000000000000000001A
:101AC0000000000000000000000000000000000016
:101AD0000000000000000000000000000000000006
:101AE000F003F8071C0C0C0C000FF00FF80C0C0C9A
:101AF0000C0C1C0FF80FF018000000000000000094
:101B0000000000000000180018001800180018005D
:101B1000D803F80F380C18181818181818181818AF
:101B20001818380CF80FD80300000000000000005F
:101B300000000000000000000000000000000000A5
:101B4000C003F007300E180C180018001800180019
:101B5000180C300EF007C003000000000000000069
:101B600000000000000000180018001800180018FD
:101B7000C01BF01F301C181818181818181818183F
:101B80001818301CF01FC01B0000000000000000EF
:101B90000000000000000000000000000000000045
:101BA000C003F00F300C1818F81FF81F18001800A9
:101BB0003818301CF00FC0070000000000000000C3
:101BC000000000000000800FC00FC000C000C00077
:101BD000F007F007C000C000C000C000C000C00097
:101BE000C000C000C000C0000000000000000000F5
:101BF00000000000000000000000000000000000E5
:101C0000E00DF80F180E0C0C0C0C0C0C0C0C0C0C42
:101C10000C0C180EF80FE00D000C0C0C1C06F8074D
:101C2000F00100000000180018001800180018004B
:101C3000D807F80F381C181818181818181818187A
:101C400018181818181818180000000000000000D4
:101C5000000000000000C000C00000000000000004
:101C6000C000C000C000C000C000C000C000C00074
:101C7000C000C000C000C000000000000000000064
:101C8000000000000000C000C000000000000000D4
:101C9000C000C000C000C000C000C000C000C00044
:101CA000C000C000C000C000C000C000C000F800FC
:101CB0007800000000000C000C000C000C000C0070
:101CC0000C0C0C060C038C01CC006C00FC009C017D
:101CD0008C030C030C060C0C00000000000000003C
:101CE000000000000000C000C000C000C000C00034
:101CF000C000C000C000C000C000C000C000C000E4
:101D0000C000C000C000C0000000000000000000D3
:101D100000000000000000000000000000000000C3
:101D20007C3CFF7EC7E383C183C183C183C183C180
:101D300083C183C183C183C1000000000000000093
:101D40000000000000000000000000000000000093
:101D50009807F80F381C1818181818181818181899
:101D600018181818181818180000000000000000B3
:101D70000000000000000000000000000000000063
:101D8000C003F00F300C1818181818181818181865
:101D90001818300CF00FC003000000000000000015
:101DA0000000000000000000000000000000000033
:101DB000D803F80F380C181818181818181818180D
:101DC0001818380CF80FD80318001800180018005D
:101DD00018000000000000000000000000000000EB
:101DE000C01BF01F301C18181818181818181818CD
:101DF0001818301CF01FC01B00180018001800181D
:101E000000180000000000000000000000000000BA
:101E1000B007F003700030003000300030003000B8
:101E200030003000300030000000000000000000F2
:101E300000000000000000000000000000000000A2
:101E4000E003F003380E180C3800F003C007000C54
:101E5000180C380EF007E00300000000000000003E
:101E600000000000000000008000C000C000C000B2
:101E7000F007F007C000C000C000C000C000C000F4
:101E8000C000C000C0078007000000000000000084
:101E90000000000000000000000000000000000042
:101EA00018181818181818181818181818181818B2
:101EB0001818381CF01FE019000000000000000096
:101EC0000000000000000000000000000000000012
:101ED0000C18180C180C180C30063006300660036D
:101EE00060036003C001C0010000000000000000AA
:101EF00000000000000000000000000000000000E2
:101F0000C141C141C361636363636363363636367F
:101F100036361C1C1C1C1C1C0000000000000000AD
:101F200000000000000000000000000000000000B1
:101F30001C38381C300C60066003600360036003CB
:101F40006006300C381C1C38000000000000000047
:101F50000000000000000000000000000000000081
:101F60001830301830187018600C600CE00CC00687
:101F7000C00680038003800380018001C001F0005F
:101F800070000000000000000000000000000000E1
:101F9000FC1FFC1F000C000600038001C000600055
:101FA00030001800FC1FFC1F0000000000000000B3
:101FB00000000000000000038001C000C000C0005D
:101FC000C000C000C0006000600030006000400041
:101FD000C000C000C000C000C000C00080010003FD
:101FE000000000000000800180018001800180016C
:101FF00080018001800180018001800180018001D9
:1020000080018001800180018001800180018001C8
:102010008001000000006000C000C001800180015C
:10202000800180018001000300030006000300011D
:10203000800180018001800180018001C00060007A
:102040000000000000000000000000000000000090
:1020500000000000F010F81F080F00000000000052
:102060000000000000000000000000000000000070
:102070000000000094200008000000200C00000078
:10208000E20D0008A02000080C000020040400005D
:10209000F20D00080000FFFF000000000024F40023
:04000005080001D915
:00000001FF
